:100000000C94A6020C94C3020C94C3020C94C30279
:100010000C94C3020C94C3020C94C3020C94C3024C
:100020000C94C3020C94C3020C9414270C94D02695
:100030000C9411280C94C3020C94C3020C94C302B8
:100040000C94C3020C94C3020C94C3020C94C3021C
:100050000C94C3020C94ED270C94C3020C94C302BD
:100060000C94C3020C94C3020C94C3020C94C302FC
:100070000C94C3020C94C3020C94C3020C94C302EC
:100080000C94C3020C94C3020C94C3020C94C302DC
:100090000C94C3020C94C3020C94C3020C94C302CC
:1000A0000C94C3020C94C3020C94C3020501090210
:1000B000A10185020901A100050919012905150001
:1000C00025019505750181029501750381010501E1
:1000D000093009311581257F950275088106093897
:1000E0001581257F950175088106050C0A380215D2
:1000F00081257F950175088106C0C005010980A191
:1001000001850319012AB700150126B7009501756D
:10011000108100C0050C0901A101850419012AA064
:1001200002150126A002950175108100C00660FF2E
:100130000961A1010962150026FF0095207508815B
:10014000020963150026FF00952075089102C0057D
:10015000010906A101050719E029E7150025019508
:1001600008750181029501750881010507190029AB
:10017000FF150026FF009506750881000508190186
:100180002905950575019102950175039101C0003E
:10019000000000000000000000000000000000005F
:1001A000000000000000000000000000000000004F
:1001B0000000007E0F00D4FFFFFFC70000007800A2
:1001C000000000000000002A2B28000000000000B2
:1001D0000000000000000000000029000000002CCA
:1001E0001E3420212224342627252E362D37382769
:1001F0001E1F202122232425263333362E37381F75
:100200000405060708090A0B0C0D0E0F1011121336
:100210001415161718191A1B1C1D2F3130232D35D4
:100220000405060708090A0B0C0D0E0F1011121316
:100230001415161718191A1B1C1D2F3130354CFDBB
:10024000377A585A000004E6D6B446020021011657
:10025000000000742FE5A3E0011C00A65D003D88AE
:1002600089C65436C3174FE4D0B7E029F92806A44D
:10027000B2E96FCC15EB7875AD7B2AB7E3049D9B93
:1002800099AED352C64C475DB1FCDFE1FB5C1AA0CE
:10029000F11B76A965D5F66F7F3DCA5BAFF3752A72
:1002A000FAE9C0BB78B1119DD15D1618AA38AF9696
:1002B000CA63DC389F937D12A254394F752476F6B9
:1002C000F7F7B0418E5464E92C22F6C51DA269D11E
:1002D0009852415F41F243EFC0396689E242A56717
:1002E000FBBE29ED75675E62EAD3B5C007ABBF2BD5
:1002F000B9BC0F74D31A4983A6536B878F62DB1D79
:10030000D1835120000000C9788A9B0AF473A200AF
:1003100001C2019D020000C5AFBBEEB1C467FB0284
:100320000000000004595A040005000600070001FF
:1003300000010001000100680069006A000100017D
:10034000006B006C006D006E0068006F0070007143
:100350000072000100AB00AC00AE00005C010001C7
:100360000001000100010001000100010001000185
:100370000001000100010001000100010001000175
:100380000001000100010001000100010001000165
:100390000001000100010001000100010001000155
:1003A0000001000100010001000100010001000145
:1003B0000001000100010001000100010001000135
:1003C0000001000100010001000100010001000125
:1003D00000010001000100010001006903000002AA
:1003E00000020065030000030001006A030000042E
:1003F0000002004F036805050001006B03000006C2
:10040000000200510300000700020067030000081B
:100410000001006C03000009000200530343050AB9
:10042000000200550343050B000200570343050C6F
:10043000000200590343050D0002005B0343050E53
:100440000002005D0343050F0002005F0343051037
:10045000000200610343051100020063034305121B
:100460000002006D030000130002006F030000098A
:10047000025B00030100A0FA09040000010301016E
:100480000009211101000122400007058103080035
:10049000010904010002030000000921110100010B
:1004A0002222000705820320000107050303200024
:1004B00001090402000103000000092111010001EB
:1004C00022810007058403200001120100020000C0
:1004D0000008EEEE27310100010203011C03760043
:1004E000690061006C003A00660036003400630069
:1004F0003200620033006300000036033100360032
:1005000020004B006500790020004D006100630071
:1005100072006F00700061006400200077002F00FF
:10052000200045006E0063006F00640065007200EB
:100530000000140362006100720074006F00680024
:100540007A0020002D0000000403090411241FBEBE
:10055000CFEFDAE0DEBFCDBF11E0A0E0B1E0EAE12D
:10056000F1E602C005900D92AC37B107D9F724E04F
:10057000ACE7B1E001C01D92AE34B207E1F70E94D2
:1005800038280C9467300C940000E8EDF0E080818E
:100590008E7F80831092E2001092DA001092E100C8
:1005A000A0EEB0E08C9181608C9380818F77808306
:1005B00019BCA7EDB0E08C918E7F8C9380818F7EEB
:1005C00080831092340408952091E4003091E50076
:1005D00095E6A9012091EC00822F817020FF06C0D2
:1005E0008091E80080FF06C080E008952091E80037
:1005F00022FD1AC080914A04882389F0853089F051
:100600008091EB0085FD0FC02091E4003091E50062
:1006100042175307F9F29150E1F684E0089582E021
:10062000089583E0089581E00895EF92FF920F937B
:100630001F93CF937C018B010E94E402C82F81118C
:1006400017C08091E80085FD0BC08091E8008E778F
:100650008093E8000E94E402882399F3C82F08C021
:10066000F70181917F018093F1000150110949F751
:100670008C2FCF911F910F91FF90EF900895CF9302
:10068000FC0180914A04843001F5C091E900CF70EB
:100690002091EC00922F917020FD90E8C92B82E010
:1006A0008093E9008091E80080FF0CC050E040E0BA
:1006B00060E270E0CF010E9415038091E8008E7720
:1006C0008093E800CF70C093E900CF9108958091A6
:1006D000420487FF13C08091E80082FF06C080912A
:1006E000E8008B778093E80004C080914A04811170
:1006F000F2CF089580914A048823D9F38091E800CD
:1007000080FFF8CF8091E8008E77ECCF982F909300
:10071000E900242F762F50E0891731F07091EC001A
:100720002091ED005091F00021FD07C09F5F9730B0
:1007300071F78093E90081E008953091EB003E7FEE
:100740003093EB003091ED003D7F3093ED00309120
:10075000EB0031603093EB007093EC002093ED00E0
:100760005093F0002091EE0027FDE0CF80E0089547
:10077000CF92DF92EF92FF920F931F93CF93DF936D
:10078000C8EDD0E088818F7E8883E7EDF0E080813E
:100790008160808384E082BF81E08093340488811B
:1007A0008E7F888302EE10E0F80110821092DA004A
:1007B00081EEC82ED12CF601108288818F77888334
:1007C00088818068888388818F7D888319BC109296
:1007D0004A04109241041092400410923F0490EE9B
:1007E000E92EF12CF70180818B7F808388818160E5
:1007F000888342E060E080E00E948603F601808109
:100800008E7F8083F8018081816080838081886011
:100810008083F70180818E7F8083888180618883D7
:10082000DF91CF911F910F91FF90EF90DF90CF90CC
:100830000895FC0180914804909149048617970718
:10084000A0F06115710529F49091E8009E779093CE
:10085000E80090E06115710551F4911108C0809194
:10086000E80082FF34C080E00895BC01F2CF80919F
:100870004A048823C1F18530C1F18091E80083FDED
:1008800030C08091E80082FDEACF8091E80080FFCF
:10089000E1CF8091F3002091F200382F61157105AE
:1008A00019F02830310558F091E02830310509F071
:1008B00090E02091E8002E772093E800CBCF819143
:1008C0008093F100615071092F5F3F4FE7CF809116
:1008D0004A04882341F0853041F08091E80083FF8D
:1008E000BECF81E0089582E0089583E008950895E1
:1008F00080913604089587E797E7909301088093E5
:10090000000888E19AE00FB6F894A89580936000FB
:100910000FBE90936000FFCF9C014FB7F894809179
:100920002D0490912E04A0912F04B09130044FBF5C
:10093000821B930B08952FB7F89480912D0490910A
:100940002E04A0912F04B09130042FBF08959C0174
:10095000FC0132969FEF80E04191461751F09F3F96
:1009600019F4411101C0982F8F5F8630A9F79F3F7E
:1009700009F40895290F311D97FD3A95F901628315
:10098000089520912A0430912B042817390771F01B
:1009900090932B0480932A04E0912804F091290479
:1009A000309721F00084F185E02D0994089520917D
:1009B0002604309127042817390771F090932704F3
:1009C00080932604E0912804F0912904309721F0C7
:1009D0000680F781E02D09940895E0912804F091B4
:1009E0002904309721F00190F081E02D099480E0F6
:1009F0000895452B39F0682381E06F3F09F080E0CE
:100A00008170089581E0FCCFDC0160914B038091FF
:100A10004C03962F891301C00895292F30E0F90166
:100A2000EE0FFF1FED5BFC4F408151814A175B07C2
:100A3000A1F487E08A9FA0018B9F500D1124455F90
:100A40005C4F81E0FA0184839613E6CF2F5F3F4F1E
:100A50002370332720934B0308952F5F3F4F922F2E
:100A60009370D8CF1092A8021092A702EBE0F3E0A7
:100A70008581811102C014821682379683E0E334A7
:100A8000F807B1F70895EFE4F3E0848195812AE057
:100A900030E0B9010E94B22F6093150186818093E6
:100AA00014018285809313018485809312018685C9
:100AB0009785B9010E94B22F6093110180898093BC
:100AC0001001828980930F01848980930E0108951B
:100AD00080914F03909150039093170180931601DA
:100AE00008950E949B049C01909116028091170228
:100AF000982B21F030931302209312029091180248
:100B000080911902982B21F030931102209310024A
:100B1000E0912804F0912904309749F082E0809315
:100B200014020480F581E02D84E192E00994089597
:100B300090911602803F59F48091170287FF0DC0F3
:100B40001092170291110BC010920E0208C0813F43
:100B500081F48091170218169CF3992381F08091FB
:100B6000180290911902892B09F064C010920D02AD
:100B70000895823F49F497FFF0CF109216028091BA
:100B800017028111ECCFE0CF833F19F41916ACF3B3
:100B9000E4CF20911802893F29F41216F4F610923E
:100BA0001802DBCF8A3F19F427FFD7CFF8CF209167
:100BB00019028B3F29F427FFD0CF10921902CDCF15
:100BC0008C3F19F41216CCF3C8CF843F31F48091D6
:100BD00015028E7F80931502C0CF853F21F480914E
:100BE00015028D7FF7CF863F21F4809115028B7F10
:100BF000F1CF873F21F480911502877FEBCF883FAB
:100C000021F4809115028F7EE5CF8D3F31F48091E4
:100C10000F028E7F80930F02A0CF8E3F21F4809130
:100C20000F028D7FF7CF8F3F09F097CF80910F0292
:100C30008B7FF0CF089580910F0280FF0CC06091F0
:100C40000F0170E07595679575956795611571054C
:100C500049F1862F089581FF06C060910F0170E071
:100C600075956795F3CF60910F0182FD0BC0909150
:100C70000D029923A1F060910E0180910F0196174A
:100C800038F0682F70E06038710500F38FE7089541
:100C9000899FC001112470E00E94C62FF4CF61E04B
:100CA00070E0D7CF81E0089580910F0260915703E3
:100CB0007091580380FF16C020911301269FC00138
:100CC000279F900D1124BC017695679576956795C1
:100CD0006038710508F043C06115710509F441C021
:100CE000862F089581FF0BC020911301269FC0011C
:100CF000279F900D1124BC0176956795E9CF82FF5F
:100D000009C0809113019B01829FB001839F700DE8
:100D10001124DECF20910E022223D1F290911201F4
:100D200080911301482F50E0291748F0CB01849F90
:100D3000B001859F700D949F700D1124C9CF289F1D
:100D400090011124269FA001279F500D369F500D22
:100D50001124692F70E0CA010E94B22FB9CF8FE72A
:100D6000089581E00895803F31F40E9454068195F2
:100D7000809317020895813F19F40E945406F8CF1A
:100D8000823F31F40E9454068195809316020895A3
:100D9000833F19F40E945406F8CF893F29F40E943A
:100DA0001B068093180208958A3F21F40E941B06B7
:100DB0008195F7CF8B3F31F40E941B06819580937C
:100DC000190208958C3F19F40E941B06F8CF843F46
:100DD00031F4809115028160809315020895853F5A
:100DE00021F4809115028260F7CF863F21F4809133
:100DF00015028460F1CF873F21F48091150288604D
:100E0000EBCF883F21F4809115028061E5CF8D3FC3
:100E100031F480910F02816080930F0208958E3F1C
:100E200021F480910F028260F7CF8F3FB9F7809154
:100E30000F028460F1CF80E00895F894E82FE295E6
:100E4000EF70F0E031A1282F2F7081E090E001C019
:100E5000880F2A95EAF7982F9095932391A392A152
:100E6000892B82A3789408959091F20192FF06C095
:100E7000282F28712830F9F4877F846093FF06C0FB
:100E8000282F28712831F1F4877E84612091F301A5
:100E900020FF06C0382F38713830D9F4877F816041
:100EA00021FF06C0282F28712831D1F4877E816167
:100EB00094FD877E0895282F24712430F9F68B7FC6
:100EC0008860DCCF282F2471243101F78B7E886164
:100ED000DDCF382F3171313019F78E7F8860E0CF48
:100EE000282F2171213121F78E7E8861E1CFCF93A8
:100EF000DF93EC0182389105A9F1D8F58133910592
:100F000009F496C048F58932910509F48AC08A9798
:100F100009F495C0C11521E5D20708F0BCC0C11580
:100F200030E5D30708F014C1C83ED10508F09CC0D5
:100F3000C03ED10560F5C83AD10508F087C0C53A72
:100F4000D10508F0FDC0C130D10509F12097F9F0B5
:100F5000C430D105E0F440C08533910509F45AC08E
:100F6000C997C1F68091F201837089F0C0EED0E09C
:100F70000EC0833E910599F170F4803E910501F118
:100F8000823E910539F68091F20182FD21C0CE01A9
:100F9000DF91CF910895863E910561F1873E9105DD
:100FA00071F1843E910509F0B5CF8091F30181FF85
:100FB000EECF8091F201C7EED0E084FD0DC0E7CF07
:100FC0008091F20180FD12C19091F30190FFDFCF7B
:100FD000C3EED0E084FFDBCFD0E0C0E0D8CF80917B
:100FE000F20182FD06C19091F30190FDBFCF84FF15
:100FF000CECFF2CF8091F20183FDDDCFC8CF8091BB
:10100000F20183FDF9C09091F30191FFF0CFC4EE9E
:10101000D0E0BDCF8091F20185FFB9CFC9E2D0E029
:10102000B6CF8091F20185FFB2CFC5E3D0E0AFCF5C
:101030008091F20186FFABCFCAE2D0E0A8CF8091C9
:10104000F20186FFA4CFC1E3D0E0A1CFCF3BD10511
:1010500018F6C85AD0E0CC0FDD1FCA5DDE4F0990EC
:10106000D881C02DD46493CFC11540E2D40758F481
:10107000C11581E0D80708F08ACFC03FD10508F438
:10108000ABCFD06584CFC11590E4D90708F4A4CFC5
:10109000DF70D06A7CCFC11525E5D20700F5C115F8
:1010A00034E5D30708F08AC0C11543E5D40708F03A
:1010B00071C0C11582E5D80708F467C0CE018370FE
:1010C000992721E030E002C0220F331F8A95E2F712
:1010D000C695C69580E2C89FE001112452C0C11593
:1010E00099E5D907A8F4C11528E5D20708F06BC027
:1010F000C11536E5D30708F06FCF8C2F0E94340757
:10110000C82FD0E0DC2FCC27CC27DF71D0623FCFB7
:10111000C1154AE5D40708F45BC0CE01905681158D
:10112000904208F059CF8D2F8F710E94340790E0C4
:10113000982F882788279F719C012C2BE901E6CFE7
:10114000C55AD0E0CD5DDE4FC881D0E0D0641FCF5E
:10115000CE01E4E096958795EA95E1F783702C2F10
:1011600026952695237040E2249F90011124382B68
:101170008C2F8370C1E0D0E002C0CC0FDD1F8A95B8
:10118000E2F7C22BD32BDC6802CFDC2FCC27C16F58
:10119000D06AFDCECE018370992721E030E002C0F5
:1011A000220F331F8A95E2F7C695C69590E2C99F34
:1011B000E0011124C22BD32BDA68E9CEDC2FCC2737
:1011C000C46FD06AE4CEDC2FCC27C06FD06ADFCEEC
:1011D0008C2F8F700E94340734E0D695C7953A95CE
:1011E000E1F7CF709C2FEC01D069D1CEC9E3D0E0FC
:1011F000CECEC2EED0E0CBCEC6EED0E0C8CE80914F
:10120000EA01882331F01092EA011092E90110926C
:10121000E8010895CF93C82F8091F30182FD0CC09F
:101220008091EA018C1741F00E949B049093E901A0
:101230008093E801C093EA01CF9108958095909141
:101240004D04982390934D040895809590918202C7
:10125000982390938202089590918202892B809323
:10126000820208951092DF011092DE011092DD01DA
:1012700008958091510390915203892B89F00E9427
:101280009B042091E8013091E901AC01421B530B12
:1012900081E020915103309152034217530708F423
:1012A00080E0817008958091DC0181111092DC0151
:1012B00008952091DB0190919A01291302C080E0EA
:1012C000089530E0F90153E0EE0FFF1F5A95E1F762
:1012D000E556FE4F5181561306C05081581303C086
:1012E0005281541304C02F5F3F4F2770E6CF81E037
:1012F00008958091DB0190919A01981301C008959F
:101300008F5F8770FACF9E3F51F1292F220F220F56
:10131000E22FE90FE80F9E2F9770E695E695E69588
:1013200083E0E89FF0011124E757FE4F50E040E0D2
:1013300080E0219130E0092E02C0369527950A946D
:10134000E2F721703327042E01C0220F0A94EAF736
:10135000822B4F5F5F4F4330510559F7089580E06E
:1013600008959E3F71F1292F220F220FE22FE90FDE
:10137000E80F8E2F877041E001C0440F8A95EAF78D
:10138000E695E695E69583E0E89FF0011124E7579E
:10139000FE4F30E020E070E05191DF011197CB016A
:1013A000022E02C0969587950A94E2F78170819586
:1013B0008527842385278C932F5F3F4F233031056A
:1013C00059F7089592959F70963091F058F4925F76
:1013D0009F70923058F4803F19F030F4883E30F41A
:1013E00081E008959A5FF4CF843FD1F380E00895BF
:1013F000883EB0F3813FD1F7F3CF9C013A95211598
:101400003F4150F5FC01EE27F170BC016627727078
:10141000AC01442754709C012227387094FF0EC001
:1014200080E1EF2B09F480E0672B09F08062452B07
:1014300009F08064232B89F08068089581E0EF2B08
:1014400009F480E0672B09F08260452B09F0846085
:10145000232B19F08860089580E00895809331046B
:10146000709333046093320480914A048430F9F419
:101470008093E9008FEF9091E800815095FD06C0C0
:1014800095ED9A95F1F700008111F5CF8091E80074
:1014900085FF0DC050E040E063E070E081E394E040
:1014A0000E9415038091E8008E778093E8000895EC
:1014B000BC0184E00C942E0ABC0183E00C942E0A3B
:1014C0009C0184E08093E9009FEF8091E8009150B7
:1014D00085FD06C085ED8A95F1F700009111F5CFE5
:1014E0008091E80085FF0CC050E040E066E070E0CD
:1014F000C9010E9415038091E8008E778093E8006F
:101500000895CF93DF93EC0181E08093E9008FEFA2
:101510009091E800815095FD06C095ED9A95F1F700
:1015200000008111F5CF8091E80085FF14C050E0E4
:1015300040E068E070E0CE010E9415038091E80071
:101540008E778093E80088E0FE01A7E3B4E0019085
:101550000D928A95E1F7DF91CF910895019708F4F4
:101560000895EFE9FFE03197F1F700C00000F6CFF2
:101570000F931F93CF93DF930FE413E0C7EDD0E0F9
:10158000CE010E941D30F80181938F012196C93F41
:10159000D105B1F7CDEDD3E0FE018591949100978F
:1015A00011F0FC0109952896F4E0C537DF07A1F793
:1015B000DF91CF911F910F9108950F931F93CF93B8
:1015C000DF93843000F561111EC024E0829F80010A
:1015D000112450E0440F551F040F151F09531F4FCE
:1015E000C8010E941D30C82FD0E0DC2FCC27C801D5
:1015F00001960E941D309E01282BC901DF91CF91D9
:101600001F910F91089590E080E0F8CF0F931F9302
:10161000CF93DF93843030F5643020F5453010F5FA
:10162000C42FD0E0CC0FDD1F2AE0629FC00DD11D7A
:10163000112438E2839FC00DD11D1124CE0187965D
:101640000E941D30082F10E0102F0027CE01889631
:101650000E941D309801282BC901DF91CF911F9165
:101660000F91089590E080E0F8CF462F20918002FE
:1016700030918102232B91F47E3F39F46E3F71F457
:1016800080917E0290917F020895843038F4743006
:1016900028F4653018F4672F0C94060B90E080E076
:1016A0000895CF92DF92FF920F931F93CF93DF9312
:1016B0006C0100914C0480914B04082BC7E0D0E0F2
:1016C00010E0FC2EC8010C2E02C0959587950A9457
:1016D000E2F780FD0CC02197A0F7F12C8F2DDF9150
:1016E000CF911F910F91FF90DF90CF900895B60199
:1016F0008C2F0E94350B0E947707019761F3EECF84
:10170000CF93DF93EC010E94510BBE010E94350B79
:10171000DF91CF910C947707FC0186819781009728
:1017200021F00E9477070C94E209808191810E9448
:10173000800BF9CF1F93CF93DF9300D000D00F928F
:10174000CDB7DEB749835A8389819A816623B9F080
:101750002223A9F00E94510B182F682F89819A81AA
:101760000E94B10969817A81812F0F900F900F90AB
:101770000F900F90DF91CF911F910C94350B0E9429
:101780008309182FEFCFFC01262F868197810097C0
:1017900039F4408151816281738184810C949A0B68
:1017A000089583E290E00E941D30863D89F484E232
:1017B00090E00E941D308D3759F485E290E00E9440
:1017C0001D3091E0833509F090E0892F81700895F4
:1017D00080E0FCCFCF9384E090E00E941D30C82FC2
:1017E00082E290E00E941D30982F8C2FCF910895B7
:1017F0000F931F93CF93DF930FE413E0C7EDD0E077
:10180000CE010E941D30F80161918F01681719F017
:10181000CE010E942B302196C93FD10589F7DF9177
:10182000CF911F910F910895EFE4F3E0128E138E84
:101830008FEA90E09183808385E0848F88E893E14C
:10184000938382838AE090E09583848324E130E06F
:101850003783268348E050E051874087938782870B
:101860002EE130E0358724879787868720E530E0B2
:10187000318B208B538B428B48E250E0558B448B4D
:1018800042E350E0578B468B48EC50E0518F408F3D
:10189000158E978F868F31A320A30E94F80B0C948E
:1018A000B80ACF93DF93C9E9D1E060E0CE010E948E
:1018B0002B302196C11584E0D807B9F7DF91CF917D
:1018C00008950F931F93CF93DF938901843028F5F8
:1018D000611123C0423008F521153C4531F42091B7
:1018E0007C0230917D02232BC1F094E0899FE001BE
:1018F000112450E0440F551FC40FD51FC953DF4FAB
:10190000612FCE010E942B30602FCE010196DF9116
:10191000CF911F910F910C942B30DF91CF911F919C
:101920000F9108950F931F93CF93DF938901843014
:1019300048F5643038F5453028F521153C4531F43B
:1019400020917C0230917D02232BE1F0C42FD0E066
:10195000CC0FDD1F9AE0699FC00DD11D112498E2C4
:10196000899FC00DD11D1124612FCE0187960E9441
:101970002B30602FCE018896DF91CF911F910F9170
:101980000C942B30DF91CF911F910F910895CF933D
:10199000C82F6FEF811166ED83E290E00E942B303B
:1019A0006FEFC1116DE784E290E00E942B306FEF82
:1019B000C11163E585E290E0CF910C942B305F92EA
:1019C0006F927F928F929F92AF92BF92CF92DF924F
:1019D000EF92FF920F931F93CF93DF93CDB7DEB7B4
:1019E00064970FB6F894DEBF0FBECDBFC0907C02E7
:1019F000D0907D0281E090E090937D0280937C0204
:101A000087E2E82E83E0F82E97E3A92E93E0B92E23
:101A100010E0450100E015C0F30125913491452DFA
:101A2000602F812F0E94920C82E0680E711C5394EB
:101A3000E5E05E12F1CFFAE08F0E911C0F5F0430EB
:101A400019F03401512CE8CFF7012591349140E091
:101A500060E0812F0E94610CF7013296259134914C
:101A600041E060E0812F0E94610C84E0E80EF11CEF
:101A70001F5FE8E2AE0EB11C143009F0CACF0E941D
:101A8000140C1A8219821C821B821E821D821886E7
:101A90001F8288EC90E09A87898709EF10E04AE07E
:101AA00050E0B801CE0101960E944F30065F1F4FF3
:101AB0000934F1E01F0799F77E018BE0E80EF11C75
:101AC0008AE0F70111928A95E9F74AE050E0B801FF
:101AD000C7010E944F30065F1F4F0939F1E01F0711
:101AE000A1F7D0927D02C0927C0264960FB6F89462
:101AF000DEBF0FBECDBFDF91CF911F910F91FF9041
:101B0000EF90DF90CF90BF90AF909F908F907F909D
:101B10006F905F90089580E00E94C70C60E086E2BD
:101B200090E00E942B300E94DF0C0E94510C81E05B
:101B30000C94C70C9B01883070F49AE0899FB00127
:101B4000112467507F4F4AE050E0C9010E940D30D8
:101B500090E080E008958FEF9FEF08958F929F921D
:101B6000AF92BF92CF92DF92EF92FF920F931F93AB
:101B7000CF93DF93CDB7DEB72A970FB6F894DEBFC9
:101B80000FBECDBF06E713E0F12CE12C8AE2C82E90
:101B900086E2D82E94E5A92E96E2B92E22E4822E72
:101BA00025E2922EF801D182C082B382A282958270
:101BB0008482F58AE48ABE016F5F7F4F8E2D0E947A
:101BC0009A0D892B29F489859A85F801938B828B4C
:101BD000FFEFEF1AFF0A0A5E1F4F88E0E816F104D4
:101BE00009F72A960FB6F894DEBF0FBECDBFDF917E
:101BF000CF911F910F91FF90EF90DF90CF90BF900A
:101C0000AF909F908F900895CF92DF92EF92FF92C6
:101C10000F931F93CF93DF93CDB7DEB72A970FB6FD
:101C2000F894DEBF0FBECDBFECE2F2E080E5DF014D
:101C30001D928A95E9F7EBE0F3E088E3DF011D925E
:101C40008A95E9F78CE2C82E82E0D82E7F0109E45C
:101C500011E0F701D182C0824AE050E0B801CE0124
:101C600001960E940D3088E0FE013196D601019068
:101C70000D928A95E1F789859A85D70113969C93F1
:101C80008E931297BAE0CB0ED11CE7E0EE0EF11C5A
:101C9000065F1F4F0939F1E01F07D9F62A960FB6E4
:101CA000F894DEBF0FBECDBFDF91CF911F910F9192
:101CB000FF90EF90DF90CF9008959F92AF92BF92E8
:101CC000CF92DF92EF92FF920F931F93CF93DF9308
:101CD00000D000D0CDB7DEB719821A821B821C82D9
:101CE00084E5E82E81E0F82E10E000E0CC24C394D7
:101CF000D12C2DE5A22E21E0B22EF70181917F019A
:101D00008F3F09F445C0F894E82FE295EF70F0E0BA
:101D100021A18F70A60102C0440F551F8A95E2F7DA
:101D2000CA01922F982B91A392A18095892382A317
:101D3000789400C0E8E5F1E0912C31E021912F3F4B
:101D400009F46BC0A22FA295AF70B0E090968C9171
:101D500090E02F7002C0959587952A95E2F780FD57
:101D60005CC0832F982A330FAE16BF0639F7F701F0
:101D7000319780818F3F11F00E941D0750EA5A95DC
:101D8000F1F7E1E0F0E0EC0FFD1FE00FF11F9082B2
:101D90000F5F1F4F0430110509F0AFCF44E050E052
:101DA000BE016F5F7F4F8EEE91E00E94F02F11E039
:101DB000009709F410E0892B91F189819A81AB8118
:101DC000BC818093EE019093EF01A093F001B0935A
:101DD000F10181E08093ED010E949B049093EC015E
:101DE0008093EB018091EB019091EC010E948C04B7
:101DF0000597C8F08091EE01809309028091EF0170
:101E000080930A028091F00180930B028091F1018E
:101E100080930C021092ED0106C080E0A3CF809168
:101E2000ED018111DFCF812F0F900F900F900F9058
:101E3000DF91CF911F910F91FF90EF90DF90CF90A6
:101E4000BF90AF909F9008958091820290914D0431
:101E5000892B80937E018091EA01882309F180918A
:101E6000510390915203892B29F00E943909811165
:101E70000E94FF0880917E019091EA01892B809356
:101E80007E0120E080E891E0FC013191CF01311129
:101E90002F5FF1E086389F07B9F721110E94FF08F4
:101EA00048E050E060EE71E08EE791E00E94F02F94
:101EB000892BA9F088E0EEE7F1E0A0EEB1E0019017
:101EC0000D928A95E1F7E0912804F091290430976A
:101ED00031F00280F381E02D8EE791E009940895BE
:101EE000EF92FF920F931F93CF93DF93EC018A85BC
:101EF000811134C0EB80FC8087E5F81A26E12E9D25
:101F0000C0012F9D900D1124DC01AA58BC4F1496DE
:101F1000ED91FC911597309731F054966D917C912D
:101F200084589C4F099586E18E9D80018F9D100DF0
:101F300011240A581C4FF80187810E942509F801D5
:101F400080850E941E090E94240F188219861B8614
:101F50001E821D821092750310927403DF91CF913F
:101F60001F910F91FF90EF900895CF93DF93EC01B5
:101F70008989811118C081E0898B8F810E942C0989
:101F800080914D049885892B80934D040E94240FE5
:101F9000EA81FB81309739F06C897D89CE01069604
:101FA000DF91CF910994DF91CF910895809118012D
:101FB000877F8093180182E00E941E09809118019A
:101FC00084FF06C08F7E8093180182E00E942C0956
:101FD0008091180185FF06C08F7D8093180180E2F3
:101FE0000E942C090C94240F90E080E00E94D704FA
:101FF00090E080E00E94C10410924D040E94240FE2
:1020000086E0E4E1F2E0DF011D928A95E9F71092A3
:102010000E0210920D0210920F020C947105809323
:102020004C040C94F40F80914C04982F96709630C9
:1020300019F488600C940F10877FFCCF21E030E00A
:1020400001C0220F8A95EAF7209580914C048223E3
:102050000C940F109091DF01809589238093DF010C
:10206000282F277091F4282F082E000C330B92177D
:10207000130659F09091F30192FD07C0859585955F
:1020800085950E941E100C9432090895CF93C0913B
:10209000F301C2FB992790F9981799F080FBC2F9D8
:1020A000C093F3016091F20184E090E00E942B3034
:1020B0006C2F82E290E00E942B3082E0CF910C9452
:1020C0002A10CF91089521E030E001C0220F8A95B7
:1020D000EAF780914C04822B0C940F109091F3013D
:1020E00092FD10C098E0899F90011124622B6093AB
:1020F000DF010E9463100E949B049093DE01809395
:10210000DD0108950C94631080934B040C94F40F3C
:1021100010928202E0E8F1E086E0DF011D928A95EC
:10212000E9F70C94F40F1F93CF93DF93CDB7DEB78D
:10213000AA970FB6F894DEBF0FBECDBF82E494E03D
:102140002091F100DC012D93CD01B4E08A349B078E
:10215000B9F780914304833009F472C0B8F4813038
:1021600009F449C0823009F4B3C08091E80083FFCC
:1021700096C280914204909143049A3008F08FC235
:10218000E92FF0E0E759FF4C0C94DA2F8A3009F47C
:102190008EC08B3009F471C0893039F780914204C8
:1021A000813219F78091460490914704009711F00D
:1021B0000297D9F68091E800877F8093E8008091AC
:1021C000E80082FF38C09091F3008091F2000297FE
:1021D00031F48091F100813011F0863021F480914A
:1021E000F100809336048091E8008B778093E800BB
:1021F0000E946703BACF80914204813A09F0B5CFBB
:102200008091E800877F8093E80080914604909158
:102210004704892B61F468E087E394E070E00E9452
:1022200019048091E8008B778093E8009ECF60E0EE
:1022300090E080E0F3CF80914A048111C0CF95CF28
:1022400080914204813A09F090CF809146049091A8
:102250004704892B09F089CF8091E800877F80931C
:10226000E8008091E80080FFFCCF80911A01809304
:10227000F1008091E8008E77B9CF809142048132DD
:1022800009F073CF8091460490914704892B09F09F
:102290006CCF8091E800877F8093E8000E946703FD
:1022A0008091440480931A010E9488105ECF80912F
:1022B0004204813209F059CF8091E800877F8093F2
:1022C000E8000E94670380914504809335044DCF58
:1022D00080914204813A09F048CF8091E800877FDD
:1022E0008093E8008091E80080FFFCCF8091350466
:1022F000BECF803899F0823809F0D1C18091460470
:102300008F70873008F0CBC18093E9008091EB009B
:1023100085FB882780F91092E90006C080913F0470
:1023200090914004911182609091E800977F909382
:10233000E8008093F1001092F1008091E8008E7720
:10234000AAC1882309F498C1823009F0A8C18091FC
:10235000440481119BC1809146048F702FEF280F98
:10236000263008F09CC18093E9002091EB0020FF0B
:102370008DC1933031F48091EB0080628093EB004B
:1023800085C19091EB0090619093EB0021E030E0EB
:1023900001C0220F8A95EAF72093EA001092EA0022
:1023A0008091EB008860EACF811179C110914404DB
:1023B0001F778091E3008078812B8093E3008091E8
:1023C000E800877F8093E8000E9467038091E8001F
:1023D00080FFFCCF8091E30080688093E30082E07F
:1023E000111183E080934A045AC18058823008F06A
:1023F00056C120914404309145042C3DE3E03E0752
:10240000A1F583E08A838AE289834FB7F894DE01DD
:10241000139620E03EE051E2E32FF0E050935700A6
:10242000E49120FF03C0E295EF703F5FEF708E2FC5
:1024300090E0EA30C0F0C7968D939D932F5F2431D2
:1024400059F74FBF8091E800877F8093E8006AE2E8
:1024500070E0CE0101960E9419048091E8008B770C
:102460008093E8001CC1C096E7CF8091460490910C
:102470004704432F55274330510509F44AC078F5E6
:102480004130510509F485C08BE590E0EFE6F4E0BA
:102490004230510509F003C12091E800277F2093C5
:1024A000E80020914804309149048217930708F40A
:1024B0009C0140E02115310509F070C041116EC04A
:1024C0008091E80082FDC9CF80914A04882329F2D7
:1024D000853019F28091E80083FFF2CFBECF413200
:1024E000510509F447C04232510509F0D8C0833084
:1024F000910508F0D4C0FC01EE0FFF1FE059FE4F1C
:102500000190F081E02D83599E4FDC018C9190E089
:102510001DC0332721303105E9F02115310579F04F
:1025200022303105F9F02330310509F0B8C0ECED67
:10253000F4E0E4918E2F90E0ECEDF4E007C0E8E4E5
:10254000F5E0E4918E2F90E0E8E4F5E0009709F4DF
:10255000A6C0A2CFE2E3F5E0E4918E2F90E0E2E3A3
:10256000F5E0F4CFEAEFF4E0E4918E2F90E0EAEFAB
:10257000F4E0ECCF8330910508F091C0880F991FEB
:10258000FC01EA58FE4F0190F081E02D89E090E0D7
:1025900083CF82E190E0EAECF4E07ECF80914A04C0
:1025A000882309F45ACF853009F457CF8091E80089
:1025B00083FD53CF8091E80082FD82CF8091E800B7
:1025C00080FF78CF9091F3008091F20021153105C2
:1025D00019F08830910550F041E0089709F040E08B
:1025E0008091E8008E778093E80064CF4491409317
:1025F000F1003196215031090196E8CF803809F079
:102600004EC08091E800877F8093E800809141046C
:102610008093F10092CE811142C010914404123097
:10262000F0F58091E800877F8093E80010934104E3
:102630000E946703112311F084E005C08091E3003C
:1026400087FDFACF81E080934A0442E061EC81E0AB
:102650000E94860342E261EC84E00E94860342E22B
:1026600061EC82E00E94860342E260EC83E00E941B
:10267000860380914A0413C080914404813079F428
:1026800081E0933009F080E0809340041092E900EB
:102690008091E800877F8093E8000E946703809123
:1026A000E80083FF0AC08091E800877F8093E800FC
:1026B0008091EB0080628093EB00AA960FB6F894AD
:1026C000DEBF0FBECDBFDF91CF911F91089588234C
:1026D00021F00E941E090C94240F0895882339F0DC
:1026E00090914D04982B90934D040C94240F0895D1
:1026F000882321F00E9425090C94240F0895882333
:1027000021F00E942C090C94240F08958823B1F124
:102710009CEF980F913A70F4E0E8F1E09191891301
:1027200003C0DF0111971C9291E0E638F907B1F779
:102730000C94240F90E2980F983050F4877091E039
:1027400001C0990F8A95EAF7892F0E942509F0CFD9
:102750009BE5980F933020F490E080E00C94D70430
:1027600098E5980F973120F490E080E00C94C10434
:10277000803F20F00E9498050C9471050895CF9336
:10278000DF93EC010E948613CE010E94FD099E0199
:10279000205E31092830310510F0CD2B21F4DF9176
:1027A000CF910C947813DF91CF910C946713CF9352
:1027B000C82F882309F452C08CEF8C0F813AF8F4AB
:1027C000E0E8F1E086E891E0DF012D91C21759F0D1
:1027D0008A179B07D1F76C2F8EE791E00E94A70420
:1027E000CF910C94240F2191C21303C0DF011197E4
:1027F0001C928E179F07B9F70E94240FECCF80E23E
:102800008C0F883048F4C77081E001C0880FCA95EA
:10281000EAF70E942C09E4CFEBE5EC0FE33040F43B
:10282000F0E0ED5DFE4F808190E0CF910C94D704F5
:10283000E8E5EC0FE73150F4F0E0EE0FFF1FEA5D42
:10284000FE4F80819181CF910C94C104C03F30F044
:102850008C2F0E94B306CF910C947105CF910895EF
:102860001F93CF93DF93182FC0916F03D091700304
:10287000893321F0C0916D03D0916E03812F0E94A6
:10288000D713209731F4812FDF91CF911F910C94B2
:1028900086138FE99FE00197F1F700C000002197B0
:1028A000F0CF0F931F93CF93DF93C42FD22FFC0150
:1028B00082818823A1F0409373030E949B0490932C
:1028C000720380937103C77081E001C0880FCA95BD
:1028D000EAF7DF91CF911F910F910C947F13109124
:1028E0007303141339C080917103909172030E9495
:1028F0008C0420916703309168038217930760F579
:10290000C0E2CD0F1D17B9F080E2810F883040F48E
:10291000177081E001C0880F1A95EAF70E947813BA
:10292000C83048F481E09D2F977001C0880F9A95B8
:10293000EAF70E947F13802F0E943014C83098F469
:10294000D77081E001C0880FDA95EAF7DF91CF9167
:102950001F910F910C947813C77081E001C0880F0C
:10296000CA95EAF7F3CFDF91CF911F910F910895A8
:10297000AF92BF92CF92DF92EF92FF920F931F938D
:10298000CF93DF93EC018AE0A82E2881222309F45B
:102990008CC02130C9F599818A81913021F4229629
:1029A0000E94301405C0923029F422960E94D71359
:1029B0002196EBCF933021F422960E948613F8CF14
:1029C000943011F02196F4CF229630E020E0AE0151
:1029D0004F5F5F4F8053990B8A30910550F0215023
:1029E000310930F38FE99FE00197F1F700C0000053
:1029F000F6CFA29EB001A39E700D11249C01260F5C
:102A0000371F8981EA01E3CFE22FF0E0E154FE4F66
:102A1000B490822F86958695869590E0FC01E155CD
:102A2000FE4FE4902770F12C022E02C0F594E7943B
:102A30000A94E2F731E0E322FF24FC01E156FE4F65
:102A4000C490D12C022E02C0D594C7940A94E2F708
:102A500031E0C322DD24FC01E157FE4F049110E078
:102A600002C0159507952A95E2F701701127E11428
:102A7000F10419F081EE0E94D713C114D10419F0AA
:102A800086EE0E94D7138B2D0E943014CD2819F0AA
:102A900086EE0E948613EF2819F081EE0E948613BD
:102AA000012B09F485CF8CE27BCFDF91CF911F9171
:102AB0000F91FF90EF90DF90CF90BF90AF9008956F
:102AC000CF93DF93EC010E94FD099E01205E310946
:102AD0002830310510F0209739F40E947F138C2F95
:102AE000DF91CF910C94D7130E946E13F8CF662319
:102AF00029F020914D04226020934D049C01305612
:102B0000211540E2340720F0305E2115304108F4F1
:102B100099270C946015DF92EF92FF920F931F9309
:102B2000CF93DF937C018B01D42E8091180182FF1B
:102B30008CC0C091A502D091A602CE15DF0521F070
:102B4000E114F10409F081C0809118018B7F80931A
:102B5000180181FD73C08091A3029091A402A80185
:102B6000481B590B81E02091160130911701421743
:102B7000530708F480E08170F82E80911801F0FA74
:102B800081F980931801FE0183E0F695E7958A9517
:102B9000E1F7EE71FF27ED57FD4F20813181AE0146
:102BA0004F70552781E090E002C0880F991F4A9529
:102BB000E2F7FF2009F444C0822B932B918380839A
:102BC0008091820281FF08C080911801806180930A
:102BD000180182E00E9425098091820285FF08C0C9
:102BE0008091180180628093180180E20E9425097B
:102BF0006F2DCE010E947715DD2031F080916A03A0
:102C000085FF02C086FF3BC080916D0390916E03EB
:102C10000E94AE0A8091A5029091A6029C013056B6
:102C2000211540E2340720F0305E2115304108F4D0
:102C300099270E94BF130E94D60F1DC081E09BCF31
:102C40008095909582239323B9CFC7019927970147
:102C50003056211540E2340728F0305E211530410E
:102C600008F0C7010E94BF138091A5029091A602AF
:102C70008E159F0501F31093A4020093A302DF9128
:102C8000CF911F910F91FF90EF90DF90089569EE23
:102C90007EEF90E080E00E94493060E082E090E0CA
:102CA0000E942B3060E083E090E00E942B30109275
:102CB0004B0460E084E090E00E942B3060E082E210
:102CC00090E00E942B3060E085E090E00E942B3085
:102CD00060E086E090E00E942B306FEF87E090E0AC
:102CE0000E942B3040E050E0BA0188E090E00E9462
:102CF0003D3060E08DE090E00E942B3040E050E0FD
:102D0000BA0188E190E00E943D3060E087E190E008
:102D10000E942B3040E050E0BA018CE190E00E942C
:102D20003D3070E060E080E290E00E94493040E099
:102D300050E0BA0188E190E00E943D3080E00E94BE
:102D4000C70C0E948B0D40E050E0BA018FE090E08C
:102D50000E943D3040E050E0BA0183E190E00C94E5
:102D60003D308F929F92AF92BF92CF92DF92EF92BF
:102D7000FF920F931F93CF93DF9300D000D0CDB776
:102D8000DEB77C01DC0113964D915C91149711968E
:102D90006C9111978C910E94F904811179C061E0C6
:102DA000C7010E94C30B8C01F7018281811111C000
:102DB000D70112968C91811149C00031FFE51F07A0
:102DC00009F4EEC001312FE5120709F022C782E0B5
:102DD000E8C080910C0190910D01019649F366E7DE
:102DE000C62E63E0D62EB12CA12C99249394809109
:102DF0000C0190910D018A159B05D4F2F601868194
:102E00008823E9F0818592850817190739F48091A4
:102E10007403909175030817190789F0D6011F965E
:102E20009C921F971C961C930E931B97C6010E94A1
:102E3000B50FC60106960E94700F10924D04BFEFA9
:102E4000AB1ABB0AE6E1CE0ED11CD1CF98012251BC
:102E50003F452031310508F0D2C68FEF93E00E9444
:102E60001D305EEED52ED00E09E911E0882369F100
:102E70008091DF01877061F0D70112968C918823D1
:102E800039F08091F30182FD03C082E00E942A1094
:102E90000F900F900F900F90DF91CF911F910F9196
:102EA000FF90EF90DF90CF90BF90AF909F908F906A
:102EB00008950115F4E01F07D9F2C8010E941D30E2
:102EC000811101C0DA940F5F1F4FD110F2CF198228
:102ED0001A821B821C82CC24CA9448012FEF821ACA
:102EE000920AC8010E941D3089831A82882309F43E
:102EF000BFCF813009F048C0580132E0A30EB11CA9
:102F0000C4010E941D30982E8A83882309F4B0CF13
:102F1000C5010E941D30D82E8FEF890D833068F4D3
:102F2000580143E0A40EB11CDB82DD2021F0CE016C
:102F300001960E94B8148501D0CF54E09512FBCFC2
:102F4000580184E0A80EB11CC80103960E941D30F0
:102F5000DD2009F48DCF882309F48ACF8150990BA5
:102F6000C89E9001C99E300D1124AD2DA150BB0B00
:102F7000CD01820F931F0197F0F2EFE9FFE0319747
:102F8000F1F700C00000F7CFCE0101960E94B814FF
:102F90005401D1CF81E00E9463100E94131068CFCA
:102FA00081E00E941E10F9CF82E0F5CF4FEFC416EA
:102FB000D10411F008F039C662E272E08C2D0E9453
:102FC0009A0D892B29F586E18C9DF0018D9DF00DE0
:102FD0001124EA58FC4F8681813009F062C080914B
:102FE000220290912302892B99F0809124029091E2
:102FF0002502892B69F08091260290912702209169
:10300000280230912902822B932B892B09F453C07B
:1030100080910C0190910D018C159D0524F4D092A6
:103020000D01C0920C01F701828196E19C9D500137
:103030009D9DB00C112495012A583C4F6901D9017E
:1030400050968C935097928116968C91169799234F
:1030500009F43FC01A961C930E9319978F5F16962A
:103060008C930E949B04F601968785878091EA01E4
:10307000878380914D0490918202892B80870190F3
:10308000F081E02D309741F0D60154966D917C91FE
:10309000C50184589C4F09951093750300937403E0
:1030A000C4C5823009F0B4CF8091260290912702E6
:1030B000892B09F4ADCF26E12C9DC0012D9D900DEB
:1030C00011248A589C4FDC0150961C920E94B50F27
:1030D0009FCF882309F4A9C5F9018189882309F4C0
:1030E000A4C5C50184589C4F0E94700F9EC5809155
:1030F0001801816080931801C6C5809118018E7FE8
:10310000809318010E94D60FBEC5809118018F7E52
:10311000013E110531F0053E1105C9F480911801F9
:103120008F7D809318018091180180FFBBC5D70166
:1031300012968C910832110528F50E31110508F010
:1031400074C00430110580F58111A8C5ABC5C80154
:103150009056811540E2940720F0905E81159041D1
:1031600010F78091180182FF9DC580916C0381FD4D
:1031700099C529EF31E040E0B60190E080E00E947F
:103180008B1590C50933110558F40D32110518F44B
:103190000B321105C9F690916A0392FDD5CF08C094
:1031A00004361105C1F3D0CF90916A0394FDCCCFC2
:1031B000882309F4A1C0909182028091EA01282F0E
:1031C000292B322F3D7FB1F11092A6021092A50259
:1031D00030916A0331FD2EC0F80143E0F695E79582
:1031E0004A95E1F7EE71FF27ED57FD4F98012F70DB
:1031F000332781E090E002C0880F991F2A95E2F7FB
:1032000080959095208131818223932391838083BF
:1032100060E0C8010E9477158091EA018D7F0E94CD
:103220000A0982E00E942A1023CE90916A0393FD3E
:103230008BCFBECF38E0F701A9EFB1E001900D923E
:103240003A95E1F71092FB011092FD011092FC01FA
:10325000A090A502B090A6020A151B05B1F5309109
:103260006A0335FF32C04091180141FB992490F860
:1032700041FF02C036FF29C04091A3025091A40231
:10328000B601641B750B4091670350916803641786
:103290007507D8F491FF08C0809118018061809370
:1032A000180182E00E9425098091820285FF08C0F2
:1032B0008091180180628093180180E20E942509A4
:1032C000692DC5010E947715D3CD9091180121FB7E
:1032D00091F9909318018D7F0E940A091093A6021C
:1032E0000093A502D092A402C092A302809118017B
:1032F00084608093180195CF970140E0B601C80122
:103300000E948B15B5CD053F4CE5140709F469C043
:1033100008F461C0063F8CE5180709F468C0D701BE
:1033200012963C91332309F4DCC4109273030330EA
:10333000BDE51B0708F067C00A3FECE51E0730F447
:10334000C80182509C45449708F067C00E94EA0B70
:103350009093F3018093F20101313CE5130709F4E6
:103360006CC108F0E9C009305CE5150709F453C1E8
:1033700008F0B6C005309CE5190709F444C108F00F
:103380009CC00330BCE51B0709F433C108F037C10A
:103390008091F201816002301C4509F42DC16091D9
:1033A000F2011091F30184E090E00E942B30612F34
:1033B00082E290E00E942B300E94881059CD07E2F3
:1033C00025EE45EE68ED7CE588C406E221EE40EE90
:1033D00063EF7CE582C407E225EE44EE64EF7CE512
:1033E0007CC406E221EE42EE65EF7CE576C407E29E
:1033F00025EE46EE66EF7CE570C408E221E045EE7E
:1034000069ED7CE56AC40136FDE51F0709F49ECF2E
:10341000053A2DE5120709F499CF06315CE5150749
:1034200009F463C40A358DE5180709F467C108F08B
:1034300043C10115ACE51A0709F450C10E3D1C4506
:1034400009F459C1F70186819781009709F45AC19F
:103450000E947707182F092FF701D280C580C294E8
:103460003FE0C3228091DF018770C1F0AD2CDD20E9
:10347000B1F0892F807F803421F080E2810F883085
:1034800068F08091F30182FD09C082E00E942A1059
:103490008091DF018770AA24A3948111A12C902E22
:1034A00092942FE09222FBE0F91508F4B8C1E92DBF
:1034B000F0E0ED58FF4C0C94DA2F8091F20180621D
:1034C00007302CE5120709F497C08091F201806162
:1034D00008301C4508F490C08091F20180648CC0D3
:1034E0008091F2018B7F0D304CE5140709F484C004
:1034F00080F40B308CE5180709F493C08091F20139
:103500008C600C301C4508F477C08091F2018D7FEF
:1035100073C08091F2018F7E0F30ACE51A0709F479
:103520006BC08091F201877F00311C4508F464C0B4
:103530008091F2018F7D60C00D3FECE51E0709F41C
:1035400078C050F505312CE5120709F480C098F4D5
:103550008091F201837F03314CE5140709F44CC0DC
:1035600008F46FC00E9488109091F201892F97FB98
:1035700087F9805841C00B3F8CE5180709F447C014
:1035800008F053C08091F30181600A3F1C4509F0A7
:1035900006CF8093F30103CF0130BDE51B0709F48B
:1035A00062C0B8F48091F3018C7F0F3FFCE51F07E8
:1035B00081F38091F301836001151D4550F38091E3
:1035C000F301982F909591708E7F892B90FB81F954
:1035D000E0CF01363DE5130709F44BC0053A4DE550
:1035E000140709F44DC002301D4509F0D8CE60E043
:1035F0003BC08091F20182608093F201D0CE809135
:10360000F2018460F9CF8091F2018860F5CF80915A
:10361000F3018260BECF0E9488108091F201806821
:10362000EBCF8091F2018E7FE7CF8091F3018E7F07
:10363000B0CF8091F3018D7FACCF8091F2018F7B71
:10364000DBCF0E9488108091F2018F77D5CF8091D7
:10365000F20182FB992790F921E0922790FB82F9F1
:1036600090FB83F9C9CF61E08EE090E00E942B309F
:1036700096CE9091F201892F8F7E94FF8061BCCF0E
:103680009091F201892F8E7F90FF8160B5CF80915C
:10369000860181110FC089E2E0E8F1E026E831E01F
:1036A0009191891303C0DF0111971C922E173F07D8
:1036B000B9F748C385E3F0CF0B35EDE51E0701F1FF
:1036C0000C351D4509F0BECE8091F30182FB8827A1
:1036D00080F991E089270E944610B4CE0E9488109C
:1036E0002FEF34E34CE0215030404040E1F700C080
:1036F00000000E947B040E944716BACB81E0EBCF0A
:1037000080E0E9CF828100811181882369F0C801BE
:103710000E94510BD82E682FC8010E94B109B80130
:103720008D2D0E94350B94CEC8010E948309D82E9E
:10373000F6CF202F2F70B22E802F807F19F0B294F9
:1037400090EFB922DD20A9F0BB2059F080E2810F73
:10375000883010F0111107C08B2D0E942C090E9497
:10376000240F812F5AC080914D04B82AB0924D0485
:10377000F6CF812F0E948613BB2009F450C080E24F
:10378000810F883010F0111104C08B2D0E94250983
:1037900003C08B2D0E941E090E94240F40C0302FB1
:1037A0003F70B32E802F807F803219F0B29480EF6B
:1037B000B822112321F1113009F4A4C0DD2009F44D
:1037C000ADC0CC2009F47DC020E0D7014C9111960A
:1037D0005C91119712966C91129713967C911397A6
:1037E00014968C910E949A0B80916C0381FDB9CF45
:1037F000F701858180FFB5CF8F70858362C080918E
:10380000F30182FF40C0DD20C1F1BB2029F08B2DE8
:103810000E942C090E94240F80E00E94D713A92D3A
:10382000A850BB0B149710F40E94ED04812F902F29
:103830000E94E2098111C4C110928801109287018F
:10384000AA20B1F08091DF0180FD12C0D70112964D
:103850001C928595859585950E946310C7010E94ED
:10386000B1168091DF018595859585950E941E1082
:1038700060E0C7010E94C30B0BCB80E00E9486135F
:10388000BB2069F282CFDD2001F1C11004C080911C
:10389000EA018B2917C041E0C41206C08091EA01F9
:1038A0008B290E940A09BBCF80916B03823078F389
:1038B000C812EDCF0E94FF088091DC01B812B092CF
:1038C000DC018B2D0E947F13AACFC11006C00E947D
:1038D000FF088B2D0E947813A2CF80916B0351E0DB
:1038E000C5120BC0823008F49ACF809182028B21DE
:1038F00009F495CF0E945309EACF823040F38C112E
:10390000E6CF8DCFDD2029F085E08C1508F487CF38
:10391000D8CF94E09C1508F482CFDBCFCC20C9F23D
:1039200080916F0390917003193321F080916D03A2
:1039300090916E030E94AE0A812F0E9486136FCF72
:10394000802F86958695837069F0813009F067CF66
:10395000812F902F9370D11002C090E080E00E94E0
:10396000C1045DCF812F902F9370D11002C090E0E1
:1039700080E00E94D70453CF812FDD2029F00E94E0
:10398000B3060E9471054BCF0E949805FACF802F95
:10399000837091F5D11043CF412F429546954770E2
:1039A000440F440F812F8F70042E01C0880F0A949A
:1039B000EAF7212F207114FF07C02FE030E001C08B
:1039C000220F4A95EAF72095302F369536953370B9
:1039D000323069F050F440914B04313029F0822BA1
:1039E00084230E9484101BCF842B822BFACF282B98
:1039F00080914B048227F5CF8695DD2011F0802F32
:103A00008170882309F40BCF412F4295469547706A
:103A1000440F440F812F8F70042E01C0880F0A9429
:103A2000EAF7212F207114FF07C02FE030E001C01A
:103A3000220F4A95EAF72095302F36953695337048
:103A4000323069F050F440914C04313029F0822B2F
:103A500084230E940F10E3CE842B822BFACF282BD5
:103A600080914C048227F5CFF02FFF70BF2EDD2010
:103A700029F08F2F0E946310812F24CF812F0E9465
:103A800078138B2D0E941E10CACE123F89F160F46C
:103A9000103FB9F0113F81F0DD2009F48CC0C11056
:103AA00060CE802F8F7128C0133F49F1143FA1F7DA
:103AB0008091F30182FF2FC0802F8F71DD2011F3E1
:103AC0001BC0DD2081F024E02C1508F4A8CE202FA7
:103AD0002F7181E090E001C0880F2A95EAF790915C
:103AE0004C048927B6CF35E03C1508F498CEEFCFCB
:103AF000802F8F71D110C6CF0E94631090CE80E0CE
:103B0000DD2009F4A6CF81E0902F9F7101C0880FBE
:103B10009A95EAF79ECF80916B038230A0F1809155
:103B2000DC01DD20F1F00E9425098091DF01877022
:103B3000843041F40E943209802F8F710E941E1040
:103B4000A12C6DCE80916B03C816D0F7402F4F711A
:103B5000B42E842F0E94631063E08B2D0E946E10A0
:103B6000EFCF0E942C0980916B03C81640F00E9491
:103B700032090E94530964E0802F8F71EFCF81E0FA
:103B80000E942A10DDCFDD2059F0502F5F71B52E35
:103B9000852F0E94631063E08B2D0E946E103FCE34
:103BA00081E00E942A1081E08C1508F038CE82E076
:103BB0000E942A1034CEC110B3CE802F8F7162CFF5
:103BC000DD2019F0C11038CE3BCEC11035CE20E03B
:103BD000F701408151816281738184810E949A0B37
:103BE00080916C0383FF28CE80918701909188019A
:103BF000029709F021CE812F0E9430141DCE003192
:103C0000BFE51B0709F4C6C90131EFE51E0709F43A
:103C1000CBC9680127E5D21A882309F4C7C93FEF49
:103C2000C316D10409F008F4F3C980916A0380FF38
:103C300039C00E949B046C01D70112968C91882395
:103C400009F463CA8091180182FF08C029EF31E0AE
:103C500040E0B60190E080E00E948B150B31BCE59E
:103C60001B0709F444CA0C31ECE51E0709F445CAE8
:103C700090911801892F8E7F90FF81600A31FCE5B9
:103C80001F0709F43DCAC8019056811520E292072A
:103C900028F0905E8115904108F045CA1092A60266
:103CA0001092A502033FBCE51B0709F48ECB08F078
:103CB0002ACB083DFCE51F0709F481CB093D2CE523
:103CC000120709F49ACB073D3CE5130709F027CB0F
:103CD00006E221EE41EE67ED7CE5C7010E9451143A
:103CE000C7C806311C4509F0ADCB80918202982FE0
:103CF0009A7A2091690320FF04C0482F447409F088
:103D000090E021FF04C0482F417109F090E022FFAC
:103D100004C0482F487809F090E023FF03C0827266
:103D200009F090E0332309F4B2CC81E0911101C095
:103D300080E08093860169E2911165E38EE791E06E
:103D40000E94A7040E94240F93C8CF92DF92EF92A3
:103D5000FF920F931F93CF93DF9380919701807F02
:103D600031F480919401C091DB0181110BC0DF918E
:103D7000CF911F910F91FF90EF90DF90CF9008951A
:103D80002196C77080919A018C1789F3F090920167
:103D9000E0909301C0909501D0909601A6016E2D00
:103DA0008F2D0E94F904D0E08111EACF8E0183E0CB
:103DB000000F111F8A95E1F7F801E556FE4F81814A
:103DC0008E11DECF80818F11DBCF82818111D8CF20
:103DD000E380F480EC18FD0860E082E991E00E9445
:103DE000C30B8091670390916803E816F90640F6CB
:103DF000809197018F70806180939701F801E05660
:103E0000FE4F80818F708061808382E991E00E9403
:103E1000B116DF91CF911F910F91FF90EF90DF903E
:103E2000CF900C9479093F924F925F926F927F925C
:103E30008F929F92AF92BF92CF92DF92EF92FF92BA
:103E40000F931F93CF93DF93CDB7DEB765970FB670
:103E5000F894DEBF0FBECDBF8C0185E0F801DE0116
:103E6000519601900D928A95E1F7D8014C901196E8
:103E70005C9011971296EC9012971396CD90DC906F
:103E800060E082E991E00E94C30B82E9A82E81E004
:103E9000B82E8090950190909601A40160919301B5
:103EA000809192010E94F9048111CAC1F09094019D
:103EB000F601E819F9094F0160E0FF2009F46DC12E
:103EC000C5010E94C30B6090670370906803309037
:103ED00097018614970408F013C140919501509101
:103EE0009601B0909201A0909301832D807F6A2D5E
:103EF00009F0ADC08B2D0E94F904FE2C81113BC04E
:103F0000D80111968C9111978A1135C08C918B1123
:103F100032C0209198013091990116968D919C9113
:103F20002817390741F5E11026C0832D8F70806175
:103F30008093970182E991E00E94B11680919701E8
:103F4000F80185838F2D65960FB6F894DEBF0FBEFE
:103F5000CDBFDF91CF911F910F91FF90EF90DF9038
:103F6000CF90BF90AF909F908F907F906F905F9019
:103F70004F903F900895F4EF6F16F1E07F0620F424
:103F800080916C0380FF21C0A601652D842D0E94C5
:103F9000F904811118C081E08E2580FF16C04E2DD6
:103FA000652D842D0E945909882379F082E991E0DA
:103FB0000E94B11688E0E2E9F1E0DF011D928A95E6
:103FC000E9F7F12CBFCF80E0E8CFA601652D842D65
:103FD0000E94F904811124C081E08E25B82FB170B0
:103FE000CB2E80FF2BC04E2D652D842D0E945909AC
:103FF000D82E811123C0498A5A8A89899A890E94B8
:10400000800B292F22952F70223060F0243088F405
:104010009F7061F0F8019581907F41F4FD2C92CF63
:1040200080E0DCCF9F7011F08823C1F3805E883080
:10403000A8F3C8010E94B116DC2CF0CFEE2009F4E1
:1040400081CF80919701816080939701BACF8B2DAA
:104050000E94F904811124C0D80111968C91119706
:104060008A111EC08C918B111BC020919801309138
:10407000990116968D919C9117972817390781F40D
:10408000E1100EC015963C92C8010E94B11688E05E
:10409000F801A2E9B1E001900D928A95E1F752CFC3
:1040A000C8010E948C0B882339F1EE2029F1809100
:1040B00097018032A0F020919201309193013A87CC
:1040C00029871B86DD86CC868E878091980190910A
:1040D0009901988B8F87CE0109960E94B11688E0CE
:1040E000F801A2E9B1E001900D928A95E1F70E94F2
:1040F000A51EFF24F39426CFC8010E94B116F9CF64
:10410000832D807F09F452CF90909201809093018B
:104110004091950150919601682D892D0E94F904D6
:1041200081111CC0F8018181881118C0808189111A
:1041300015C02091980130919901868197812817A7
:10414000390761F4E1100AC03582C8010E94B11636
:1041500088E0D5011D928A95E9F7F4CEC8010E9446
:104160008C0B882349F2EE2039F28091970180323E
:1041700008F4B5CF20919201309193013A832983BD
:104180001B82DD82CC828E8380919801909199016F
:1041900098878F83CE010196A0CF82E991E00E949B
:1041A000C30B80916703909168038816990680F687
:1041B000FE2CEE2009F4A0CFE0909201D090930164
:1041C00040919501509196016D2D8E2D0E94F9041C
:1041D000811128C0F80181818D1124C080818E1148
:1041E00021C02091980130919901868197812817EB
:1041F0003907C1F480916C0382FD49CF90919701FA
:1042000090FD45CF907F09F442CF8091970185833F
:10421000903F09F439CF982F907F905F8F70892B52
:10422000858332CFC8010E948C0B811158CF8091B9
:104230009701816080939701C8010E94B11682CED8
:10424000EE2009F459CFC8010E948C0BF82E882368
:1042500009F452CF88E0F801A2E9B1E001900D9293
:104260008A95E1F780919201909193010E94800BD1
:104270000E94A51E67CECF93DF93CDB7DEB76097C0
:104280000FB6F894DEBF0FBECDBF29873A874B87A4
:104290005C876D877E878F87988BCE0109960E94F9
:1042A000131F81112FC088E0FE013996DE0111969F
:1042B00001900D928A95E1F74C855D856A85898527
:1042C0000E94F90481111EC0A0919A01B0E0CD01B5
:1042D0000196877099272091DB012817190609F1AB
:1042E00093E0AA0FBB1F9A95E1F7A556BE4F98E041
:1042F000FE01319601900D929A95E1F780939A0113
:104300000E9479098091DB0190919A01891317C06D
:1043100060960FB6F894DEBF0FBECDBFDF91CF9190
:1043200008950E94881010929A011092DB0188E093
:10433000E2E9F1E0DF011D928A95E9F7E3CFB8E009
:104340008B9FC001112485569E4F0E94131F882306
:10435000F9F28091DB0190E00196877099278093B4
:10436000DB01D0CFEF92FF920F931F93CF93DF9398
:104370008091AA02882361F0C091A9028CE0F82EF6
:104380008091AA02C81758F01092AA021092A902AE
:10439000DF91CF911F910F91FF90EF900895EE2440
:1043A000E394EC0EE092A9020C2F10E0CF9DE00107
:1043B0001124C555DD4F4B815C81698188810E9444
:1043C000F90481111DC08E819F81892B21F488857C
:1043D0009985019651F4288139814A815B816C81EC
:1043E0007D818E819F810E943B21F09EF001F19E94
:1043F000F00D1124E555FD4F1482138210924D04E7
:10440000CE2DBECF10924E0310924D031092190183
:1044100080914C0380934B030E9432050C94B2218F
:104420003F924F925F926F927F928F929F92AF9244
:10443000BF92CF92DF92EF92FF920F931F93CF9391
:10444000DF93C0914B0397E0892E01E010E02CE050
:10445000322E3EEF932E4424439480914C038C13D0
:1044600015C00E94B221DF91CF911F910F91FF9053
:10447000EF90DF90CF90BF90AF909F908F907F9004
:104480006F905F904F903F900C943205D0E0FE010A
:10449000EE0FFF1FED5BFC4F80819181889ED00164
:1044A000899EB00D1124A55FBC4F14962C911497D2
:1044B000211157C05090AA02EBEAF2E030E020E070
:1044C000712C5D01251508F04AC0E284F384D50102
:1044D000CD90DC906FEF7FEF612C462D50E0DA013C
:1044E000AA0FBB1FAC0DBD1D0D90BC91A02D109748
:1044F00031F0EA16FB0609F4BA016394EECF6F3F80
:104500007607A1F1D80102C0AA0FBB1F6A95E2F796
:104510007A2AB80102C0660F771F6A94E2F7AB01EE
:104520004150510974161506F9F4329EF001339E7C
:10453000F00D1124E555FD4F889ED001899EB00DE8
:104540001124A55FBC4F12962D913C911397378390
:104550002683908291829187808715964C920E9443
:1045600004052196C37079CF148213822F5F3F4FC9
:104570003C96A8CF2F923F924F925F926F927F927C
:104580008F929F92AF92BF92CF92DF92EF92FF9263
:104590000F931F93CF93DF93CDB7DEB769970FB615
:1045A000F894DEBF0FBECDBF942F498B252F5A8BB9
:1045B0006B8B7C8B8D8B4C895D89622F892F0E9440
:1045C000F904811109C080918701909188010196B9
:1045D00090938801809387018B89811110924D04FB
:1045E0001D861E861F86188A85E0FE017196DE01F3
:1045F000199601900D928A95E1F78091F30182FD61
:104600001EC08091510390915203892BC1F00E94EA
:104610009B042091DD013091DE01821B930B2091E0
:104620005103309152038217930720F08091DF01EC
:1046300082FFF5C10E94390981110E94FF084C8553
:104640005D856A8589850E94F904811111C061E048
:10465000CE0109960E94C30B6C018B8527EFC21611
:104660002CE5D20681F4882321F181E080931901A1
:1046700029853A854B855C856D857E858F859889F2
:104680000E943B21C5C038EFC3163CE5D30629F490
:10469000882379F00E940222EBCF49EFC4164CE543
:1046A000D40639F4882329F0809119018111F2CFC1
:1046B000DCCF0BE013E0512CB12CA12C222423944D
:1046C000312C2EEF422EF8014081518188248A94AA
:1046D000982C20E0822F90E0FC01EE0FFF1FE40FEA
:1046E000F51F608171816115710531F0C616D7061D
:1046F00009F44C012F5FEECFF12CFFEF8F169F06D0
:1047000009F448C0F8014481F09019018F2D41113E
:1047100080E0F82FF170FF2EF801E58086819B85FF
:10472000992309F40CC1FF2009F409C160906503C5
:1047300070906603E11012C0A10101C0440F8A9479
:10474000EAF7842B86838091A7029091A8028615B0
:10475000970520F47092A8026092A702C10102C0DE
:10476000880F991F2A95E2F70197F80126812817EB
:10477000190681F480914D0390914E03009709F43E
:1047800060C00E948C046816790608F05AC021E0C7
:10479000F80124835F28FFEFAF1ABF0A095F1F4F9C
:1047A00028E0A216B10409F08ECF8B85882309F486
:1047B00021C1552009F41EC10E949B0490934E0311
:1047C00080934D038091AA02883010F591E0980FF4
:1047D0009093AA0298E0FE013996DE0111960190AD
:1047E0000D929A95E1F73CE0839FC0011124855515
:1047F0009D4F28E0FE013196DC0101900D922A9533
:10480000E1F72FEF3FEFFC0131872087D386C28687
:1048100069960FB6F894DEBF0FBECDBFDF91CF9182
:104820001F910F91FF90EF90DF90CF90BF90AF90CE
:104830009F908F907F906F905F904F903F902F90C0
:10484000089580914B0350914C03982FF0E0E0E0E5
:10485000851314C090934B03E017F10709F49ACF26
:1048600090E0FC01EE0FFF1FED5BFC4FB182A082D8
:1048700001968370992780934C038CCF682E712CFE
:10488000F301EE0FFF1FED5BFC4F2081318147E00C
:10489000429FD001439FB00D1124A55FBC4F6D9185
:1048A0007C911197798F688F40E020E030E0E32F12
:1048B000F0E0EE0FFF1F688D798DE60FF71F808007
:1048C000918081149104E1F0F8010190F081E02DD4
:1048D000FF8BEE8B20E005C08616970609F44F2D5E
:1048E0002F5FE22FF0E0EE0FFF1F6E897F89E60F4A
:1048F000F71F608171816115710571F73F5FD7CF37
:104900004423D1F0F801231708F0FD0121E02483AE
:104910000E171F0721F490934B03F42E3BCF9813EF
:1049200005C0AE17BF0711F49F5F937093012F5F0F
:104930003F4F822F83708CCFF0E0E0E0F7CF90E024
:10494000E1101FC0B10102C0660F771F2A95E2F780
:104950009B01215031098217930731F4442309F454
:1049600047C0C5010E940405C10101C0880F8A9497
:10497000EAF7982F9095F801868189238683FE2C8B
:1049800009CF9C01082C02C0359527950A94E2F7BF
:10499000A90141705527BC016150710986239723F5
:1049A000892B11F5452B01F1F80182819381892B27
:1049B000C1F01B821C821D821E8249824A820E9493
:1049C0009B048160582F9D838C83F80182819381A1
:1049D0008F83988729813A814B816D817E810E94E6
:1049E0003B21F8011582C0CFF22FF170EF2EBCCF22
:1049F000EF2CBACF90914B0380914C03981731F074
:104A00000E941022552009F433CE02CF0E94B22119
:104A100010924E0310924D030E943205F3CF82E0B4
:104A20000E942A1007CECF93DF9300D000D00F92C0
:104A3000CDB7DEB790937F0280937E02811520E28E
:104A4000920748F40F900F900F900F900F90DF9106
:104A5000CF910C94BF138EEF89838A831B820E94AF
:104A60009B048160782F9D838C8349815A816B815F
:104A70008D810F900F900F900F900F90DF91CF913D
:104A80000C94BA220F931F93CF93DF938C01EB0109
:104A900062E272E08C2F0E949A0D892BA1F4809122
:104AA0006D0390916E030E94AE0ADD27C65EDD4F56
:104AB0008881F80110821882833009F148F481302E
:104AC00059F0823081F0DF91CF911F910F910895BD
:104AD0008430D1F08530B9F7809122029091230281
:104AE000009789F306C080912402909125020097D7
:104AF00099F3DF91CF911F910F910C941325809121
:104B0000260290912702F3CF8091280290912902EA
:104B1000009779F72091220230912302809124029C
:104B20009091250221153105D9F2009711F7C9019D
:104B3000E0CFCF93DF9300D000D00F92CDB7DEB798
:104B400090937F0280937E02811520E2920748F4C1
:104B50000F900F900F900F900F90DF91CF910C94CA
:104B600060158EEF89838A8381E08B830E949B048A
:104B70008160782F9D838C8349815A816B818D81DF
:104B80000F900F900F900F900F90DF91CF910C949A
:104B9000BA22BF92CF92DF92EF92FF920F931F93B0
:104BA000CF93DF93B82EC0904C0480914B04C82A59
:104BB000C7E0D0E0D12CF12CE12CD701C6010C2E9E
:104BC00004C0B695A795979587950A94D2F780FF6C
:104BD0001FC04B2D60E08C2F0E94DD0A8C018130BC
:104BE0009105B1F00E9499258FE39CE90197F1F7B7
:104BF00000C00000C8010E94132581E0DF91CF9121
:104C00001F910F91FF90EF90DF90CF90BF9008958C
:104C1000219798F64B2D60E080E00E94DD0AEC01C0
:104C20000E9499258FE39CE90197F1F700C00000ED
:104C3000CE01E1CFCF93DF93EC010E9499258091C3
:104C40006D0390916E030E94AE0ACE01DF91CF9169
:104C50000C9413250F931F93CF93DF938C01862F12
:104C600062E272E00E949A0D892BC9F4C09122027F
:104C7000D0912302209799F0F8018081833069F464
:104C8000CE010E941A26CE010E941A26CE01DF9183
:104C9000CF911F910F910C941A268430B8F7DF91B1
:104CA000CF911F910F9108950F931F93CF93DF938F
:104CB0008C01EB0162E272E08C2F0E949A0D892B2D
:104CC00009F064C0FE01FF27D8018C91E65EFD4F1C
:104CD0008130D9F419969C911997992311F080830A
:104CE0000CC01A969C919923D1F382E08083809125
:104CF0002402909125020097D9F48091220290918C
:104D00002302009709F442C013C08230E9F51996D6
:104D10008C91199781112DC01A968C9181110EC01A
:104D200083E080838091260290912702009719F1F9
:104D3000DF91CF911F910F910C94992584E080838E
:104D40008091280290912902009791F78091220288
:104D5000909123020097F9F00E941A268091240274
:104D600090912502009721F78091220290912302D1
:104D7000DFCF85E08083809122029091230200970B
:104D800029F00E941A26F0CF86E08083DF91CF9130
:104D90001F910F9108958091240290912502B1CF27
:104DA0001F920F920FB60F9211242F933F934F93A0
:104DB0005F936F937F938F939F93AF93BF93CF93A3
:104DC000DF93EF93FF93D091E900DF708091EC00C7
:104DD000C82FC17080FDC0E81092E9008091F000FA
:104DE000877F8093F00078940E9493101092E900DE
:104DF0008091F00088608093F000CD2BCF70C0933D
:104E0000E900FF91EF91DF91CF91BF91AF919F9119
:104E10008F917F916F915F914F913F912F910F9063
:104E20000FBE0F901F9018951F920F920FB60F9202
:104E300011242F933F934F935F936F937F938F939F
:104E40009F93AF93BF93EF93FF938091E10082FF15
:104E500009C08091E20082FF05C08091E1008B7F54
:104E60008093E1008091DA0080FF24C08091D80017
:104E700080FF20C08091DA008E7F8093DA008091DD
:104E8000D90080FF9DC080E189BD82E189BD09B460
:104E900000FEFDCF81E080934A04809134048111AB
:104EA00009C00E94C5020E94B8038091E20084609C
:104EB0008093E2008091E10080FF17C08091E200C2
:104EC00080FF13C08091E2008E7F8093E20080918A
:104ED000E20080618093E2008091D800806280933C
:104EE000D80019BC85E080934A048091E10084FFDA
:104EF0002BC08091E20084FF27C080E189BD82E160
:104F000089BD89B5982F917080FFFBCF8091D80023
:104F10008F7D8093D8008091E1008F7E8093E100A7
:104F20008091E2008F7E8093E2008091E2008160B8
:104F30008093E20080914104882309F447C084E013
:104F400080934A0480914A048091E10083FF27C046
:104F50008091E20083FF23C08091E100877F8093EE
:104F6000E10082E080934A04109241048091E100C4
:104F70008E7F8093E1008091E2008E7F8093E2003B
:104F80008091E20080618093E20042E060E080E096
:104F90000E9486038091F00088608093F000FF916A
:104FA000EF91BF91AF919F918F917F916F915F91A1
:104FB0004F913F912F910F900FBE0F901F9018951A
:104FC00019BC10924A041092340474CF8091E3000B
:104FD00087FD93E090934A04B5CF78941F921FB653
:104FE0001F9211248F939F93AF93BF9380912D04B1
:104FF00090912E04A0912F04B09130040196A11D30
:10500000B11D80932D0490932E04A0932F04B09390
:105010003004BF91AF919F918F911F901FBE1F9041
:1050200018951F921FB61F9211248F939F93AF93D1
:10503000BF9380912C04811113C080912D04909115
:105040002E04A0912F04B09130044196A11DB11DF2
:1050500080932D0490932E04A0932F04B0933004DA
:10506000BF91AF919F918F911F901FBE1F90189578
:10507000CDB7DEB7E7970FB6F894DEBF0FBECDBF52
:1050800084B7877F84BF0FB6F894A895809160009D
:10509000886180936000109260000FBE80E890E00D
:1050A0000FB6F89480936100909361000FBE85B7AE
:1050B000806885BF85B7806885BF8BE197E0909356
:1050C0007D0180937C010E94AE0D0E94040E0E941F
:1050D000B80A0E94C5020E94B8038091E200846071
:1050E0008093E200789480914A048823A1F0109183
:1050F000E9001F709091EC00892F817090FD80E88D
:10510000182B1092E9008091E80083FD0E94931013
:105110001F701093E90082E084BD93E095BD9AEF83
:1051200097BD80936E000E94D10B811102C00E9436
:105130008B0D86E60E941D0787E90E941D0786ECFD
:105140000E941D0784E30E941D0708E511E0BDE5EC
:10515000EB2EB1E0FB2ED8018D918D018F3F11F028
:105160000E941D07E016F106B1F784E0E9E0F2E0E5
:10517000DF01282F1D922A95E9F7EEEEF1E0DF011D
:105180001D928A95E9F790E080E00E942530893EE3
:105190009E4F21F40E94D10B811102C00E9447163C
:1051A00082E090E00E941D308093F4010E94EA0B9F
:1051B0009093F3018093F2010E945D0EEFE3FCE90E
:1051C0003197F1F700C000000E945D0E8091090246
:1051D00080FF08C06FEF7FEF90E080E00E944930D1
:1051E0000E947B0483E090E00E941D300E948410A6
:1051F0005198599A5098589A8FE891E00197F1F791
:1052000000C0000089B186958170489943C190E043
:10521000892B8093030280E091E09093290480938E
:10522000280489E092E0A4E0A80FAFAB8E010F5FE5
:105230001F4F80914A04E0E4DE2EF0E1EF2EA2E160
:10524000FA2E853009F45DC10E945D0E882359F065
:105250008FB7F89440912D0450912E0460912F0443
:10526000709130048FBFA9E0B2E0E5EFF1E0F12CDE
:10527000E12C3E2D8D919191981709F451C1292F60
:10528000282790E0DD24D3944D2D422309F443C117
:105290009BA73CA78D2191E009F490E09DA70E9477
:1052A0009B048160782F9FA78EA74BA55CA56DA559
:1052B0008FA50E94BA22F701EB50FE4F8081D826BD
:1052C000D08280910C0190910D01F12C76E1E72EB6
:1052D000019609F06DC180911901811173C180910E
:1052E0006A0380FF1EC08091180182FF1AC00E94CD
:1052F0009B042091A3023091A402AC01421B530BEA
:1053000020911601309117014217530750F029EFF1
:1053100031E041E0BC018091A5029091A6020E947B
:105320008B15E0910302EE0FEE0FE093030289B1BB
:10533000869581708DAB1EAA48996FC180E02DA91A
:105340003EA9822BE82BE0930302EF70F0E0E35AD2
:10535000FE4F808190910202890F8093020220E02B
:1053600084304CF0809101028F5F8093010280E0D5
:105370000E94C92521E0809102028D3F4CF480916A
:10538000010281508093010281E00E94C92521E041
:1053900080910202082E000C990B64E070E00E94DC
:1053A000C62F80930202222359F08FB7F8944091C0
:1053B0002D0450912E0460912F04709130048FBF02
:1053C00086E0E4E1F2E0D80101900D928A95E1F7E0
:1053D000C0901602D0901702E0901802F0901902C7
:1053E00010921602109217021092180210921902CF
:1053F0008C2D8D2909F41EC1809112029091130207
:105400000E948C04AC0190910E02992309F408C10A
:10541000809114018417150608F00CC19F3F19F004
:105420009F5F90930E02CC2059F00E9454069FEF8C
:105430001C140CF491E0899F802D11248093160296
:10544000DD2059F00E9454069FEF1D140CF491E0EA
:10545000899F802D112480931702309116023323E7
:1054600009F4E8C020911702222309F4E3C045EBB8
:105470003403C0011124992309F42CC1909316021E
:1054800045EB240390011124332309F427C1309301
:105490001702D0C092E0BCCE80914A04843019F14A
:1054A00010922C04E8E1F0E00FB6F894A895E09390
:1054B00060000FBED092600083B7817F846083BF9D
:1054C00083B7816083BF7894889583B78E7F83BFCD
:1054D0000FB6F894A8958091600088618093600071
:1054E000109260000FBE80914004882351F00E940A
:1054F0005D0EE9E0F2E081918111DEC42FA92E1347
:10550000FACF80914A04853009F4C6CF0E948810F2
:105510000E94ED0499CE9F5FDD0C953009F0B4CE6A
:105520003FEFE31AF30A44E0E416F10409F0A1CED8
:105530008FEF88AB89AB1AAA0E949B048160782FF9
:105540009CAB8BAB48A959A96AA98CA90E94BA2225
:10555000B8CEE89EF001E99EF00D1124EA58FC4F08
:10556000C288D388C114D10421F4C0906703D090BD
:105570006803E89EF001E99EF00D1124EA58FC4F03
:1055800086818823A1F0858596850E948C04C816A3
:10559000D90668F4FE9C60011124C6018A589C4F0C
:1055A0000E94B50FC60184589C4F0E94700FF3945F
:1055B0008F2D90E020910C0130910D0128173907B3
:1055C00044F689CE80914D0390914E03009709F4E3
:1055D00086CE0E948C042091A7023091A802281741
:1055E000390708F07CCE90914B0380914C039817BB
:1055F00059F00E9410221092A8021092A702109255
:105600004E0310924D036BCE0E94B22110924E03B6
:1056100010924D030E94320562CE82E090E08FCE60
:10562000209115018AE0289F900111242417350745
:1056300008F4F6CE8E2D8F2909F45EC080911002F9
:10564000909111020E948C04AC0190910D0299235B
:1056500009F448C0809110018417150608F04CC069
:105660009F3F19F09F5F90930D02EE2059F00E942A
:105670001B069FEF1E140CF491E0899F802D1124CE
:1056800080931802FF2059F00E941B069FEF1F1401
:105690000CF491E0899F802D1124809319023091A0
:1056A0001802332349F120911902222329F145EBF5
:1056B0003403C0011124992309F478C0909318028F
:1056C00045EB240390011124332309F473C0309374
:1056D000190212C081E080931602D2CE81E080933D
:1056E0001702A8CF209111018AE0289F9001112470
:1056F0002417350708F4B6CF80911602909117024F
:10570000892B90911802892B90911902892B11F005
:105710000E94710586E0F801A4E1B2E001900D92CB
:105720008A95E1F70E94ED04909104028913809319
:10573000040280914A04843009F07BCD83E0809399
:10574000E9008091E80082FF74CD8091E80090E04C
:1057500085FF09C00E94E40260E2C62ED12C7801C8
:105760008823A9F191E08091E8008B778093E8008D
:10577000992309F45ECDE0908002F0908102898146
:10578000E114F10491F18E3F09F0BCC08A818330AD
:1057900020F08550833008F0B5C0EA81EE3008F083
:1057A000B1C0F0E0E158FF4C0C94DA2F81E0809317
:1057B000180286CF81E0809319029ECF8091F1007C
:1057C000D7018D937D01B1E0CB1AD10859F28091B8
:1057D000E80085FDF3CF8091E8008B778093E800A7
:1057E0000E94E402882399F3BDCF8C3009F4C9C02C
:1057F00048F5843009F4ACC050F4823009F468C034
:1058000008F097C0813009F45FC08FEF81C3863004
:1058100009F4B4C008F4A7C08B30B9F780917C02BA
:1058200090917D02892B09F46DC0C8010E943F034D
:10583000FFEF21EE34E0F15020403040E1F700C0AE
:105840000000CECC803109F4CDC090F58E3009F443
:105850009FC008F499C080917C0290917D02892BB1
:1058600009F450C0EC80F12C3DE1E316F10408F09E
:1058700049C0CA80DB80DC24CD24DC245801E00E42
:10588000F11EC60187569E4FEA14FB04D9F147E684
:10589000C41642E0D40628F4D50114966C910E94F7
:1058A0002B30BFEFAB1ABB0AEFEFCE1ADE0AE9CFFF
:1058B000823109F49CC008F498C0833109F4BFC058
:1058C0008E3F09F0A2CF69CF1A8289E08B831AC07C
:1058D0008A81823009F43EC38330C1F0813009F0FF
:1058E00094CF2FB7F89460912D0470912E0480917D
:1058F0002F04909130042FBF0E94E02F6B837C8394
:105900008D839E83C8010E943F0393CC80917C02CB
:1059100090917D02892BB1F3809109028B83809154
:105920000A028C8380910B028D8380910C028E83FE
:10593000E9CF8A81823009F068CF6B817C818D81CB
:105940009E810E94E02F86E290E00E942B30DACF09
:105950004C816B818A810E94060B982789279827A2
:105960009E838D83CFCF2D813E81322723273227FF
:105970004C816B818A810E94920CC4CF0E94DF0C03
:10598000C1CF80E18A83BECF82E08A8387E69ECF43
:10599000EC80F12CEDE1EE16F10408F0B3CFCA80F3
:1059A000DB80DC24CD24DC245801E00EF11EC6018E
:1059B00087569E4FEA14FB0409F4A4CFF7E6CF16EE
:1059C000F2E0DF0660F40E941D30D50114968C933E
:1059D000FFEFCF1ADF0A2FEFA21AB20AE8CFF501C4
:1059E0001482F6CF0E94510C8DCF84E0CBCFEC8097
:1059F000F12CFDE1EF16F10408F084CFCA80DB80C2
:105A0000DC24CD24DC245801E00EF11EC60187966B
:105A1000AE14BF0409F476CF20EAC216D10460F4B4
:105A20000E941D30D50114968C93FFEFCF1ADF0A28
:105A30002FEFA21AB20AEACFF5011482F6CFCC807A
:105A4000D12C3DE1C316D10408F05CCFEA80FB8085
:105A5000FE24EF24FE2440EAE416F10408F052CFBD
:105A600080EA90E08E199F098C159D0508F44ACFB5
:105A7000370187E2680E711C80917C0290917D0253
:105A800027014C0C5D1C892BA1F5570191E0A9223F
:105A9000BB24E0FE0DC0C70186960E941D309D818B
:105AA00089279827892781159C4511F48FEF8D83CD
:105AB000460140FE17C0B1E08B1A910855E0252E33
:105AC000312C2C0E3D1E280C391CC3018C0D9D1D44
:105AD0000E941D30F101908181159C4519F48FEFD2
