:100000000C94A6020C94C3020C94C3020C94C30279
:100010000C94C3020C94C3020C94C3020C94C3024C
:100020000C94C3020C94C3020C94EC260C94A826E6
:100030000C94E9270C94C3020C94C3020C94C302E1
:100040000C94C3020C94C3020C94C3020C94C3021C
:100050000C94C3020C94C5270C94C3020C94C302E5
:100060000C94C3020C94C3020C94C3020C94C302FC
:100070000C94C3020C94C3020C94C3020C94C302EC
:100080000C94C3020C94C3020C94C3020C94C302DC
:100090000C94C3020C94C3020C94C3020C94C302CC
:1000A0000C94C3020C94C3020C94C3020501090210
:1000B000A10185020901A100050919012905150001
:1000C00025019505750181029501750381010501E1
:1000D000093009311581257F950275088106093897
:1000E0001581257F950175088106050C0A380215D2
:1000F00081257F950175088106C0C005010980A191
:1001000001850319012AB700150126B7009501756D
:10011000108100C0050C0901A101850419012AA064
:1001200002150126A002950175108100C00660FF2E
:100130000961A1010962150026FF0095207508815B
:10014000020963150026FF00952075089102C0057D
:10015000010906A101050719E029E7150025019508
:1001600008750181029501750881010507190029AB
:10017000FF150026FF009506750881000508190186
:100180002905950575019102950175039101C0003E
:10019000000000000000000000000000000000005F
:1001A000000000000000000000000000000000004F
:1001B0000000007E0F00D4FFFFFFC70000007800A2
:1001C000000000000000002A2B28000000000000B2
:1001D0000000000000000000000029000000002CCA
:1001E0001E3420212224342627252E362D37382769
:1001F0001E1F202122232425263333362E37381F75
:100200000405060708090A0B0C0D0E0F1011121336
:100210001415161718191A1B1C1D2F3130232D35D4
:100220000405060708090A0B0C0D0E0F1011121316
:100230001415161718191A1B1C1D2F3130354CFDBB
:10024000377A585A000004E6D6B446020021011657
:10025000000000742FE5A3E0011C00A65D003D88AE
:1002600089C65436C3174FE4D0B7E029F92806A44D
:10027000B2E96FCC15EB7875AD7B2AB7E3049D9B93
:1002800099AED352C64C475DB1FCDFE1FB5C1AA0CE
:10029000F11B76A965D5F66F7F3DCA5BAFF3752A72
:1002A000FAE9C0BB78B1119DD15D1618AA38AF9696
:1002B000CA63DC389F937D12A254394F752476F6B9
:1002C000F7F7B0418E5464E92C22F6C51DA269D11E
:1002D0009852415F41F243EFC0396689E242A56717
:1002E000FBBE29ED75675E62EAD3B5C007ABBF2BD5
:1002F000B9BC0F74D31A4983A6536B878F62DB1D79
:10030000D1835120000000C9788A9B0AF473A200AF
:1003100001C2019D020000C5AFBBEEB1C467FB0284
:100320000000000004595A040005000600070001FF
:1003300000010001000100680069006A000100017D
:10034000006B006C006D006E0068006F0070007143
:100350000072000100AB00AC00AE00005C010001C7
:100360000001000100010001000100010001000185
:100370000001000100010001000100010001000175
:100380000001000100010001000100010001000165
:100390000001000100010001000100010001000155
:1003A0000001000100010001000100010001000145
:1003B0000001000100010001000100010001000135
:1003C0000001000100010001000100010001000125
:1003D00000010001000100010001006703000002AC
:1003E0000002006303000003000100680300000432
:1003F0000002004D034005050001006903000006EE
:100400000002004F0300000700020065030000081F
:100410000001006A0300000900020051031B050AE5
:1004200000020053031B050B00020055031B050CC3
:1004300000020057031B050D00020059031B050EA7
:100440000002005B031B050F0002005D031B05108B
:100450000002005F031B051100020061031B05126F
:100460000002006B030000130002006D030000098E
:10047000025B00030100A0FA09040000010301016E
:100480000009211101000122400007058103080035
:10049000010904010002030000000921110100010B
:1004A0002222000705820320000107050303200024
:1004B00001090402000103000000092111010001EB
:1004C00022810007058403200001120100020000C0
:1004D0000008EEEE27310100010203011C03760043
:1004E000690061006C003A00660036003400630069
:1004F0003200620033006300000036033100360032
:1005000020004B006500790020004D006100630071
:1005100072006F00700061006400200077002F00FF
:10052000200045006E0063006F00640065007200EB
:100530000000140362006100720074006F00680024
:100540007A0020002D0000000403090411241FBEBE
:10055000CFEFDAE0DEBFCDBF11E0A0E0B1E0EAEB23
:10056000FFE502C005900D92AE37B107D9F724E040
:10057000AEE7B1E001C01D92AC34B207E1F70E94D2
:1005800010280C94B72F0C940000E8EDF0E0808167
:100590008E7F80831092E2001092DA001092E100C8
:1005A000A0EEB0E08C9181608C9380818F77808306
:1005B00019BCA7EDB0E08C918E7F8C9380818F7EEB
:1005C00080831092320408952091E4003091E50078
:1005D00095E6A9012091EC00822F817020FF06C0D2
:1005E0008091E80080FF06C080E008952091E80037
:1005F00022FD1AC080913F04882389F0853089F05C
:100600008091EB0085FD0FC02091E4003091E50062
:1006100042175307F9F29150E1F684E0089582E021
:10062000089583E0089581E00895EF92FF920F937B
:100630001F93CF937C018B010E94E402C82F81118C
:1006400017C08091E80085FD0BC08091E8008E778F
:100650008093E8000E94E402882399F3C82F08C021
:10066000F70181917F018093F1000150110949F751
:100670008C2FCF911F910F91FF90EF900895809153
:10068000410487FF13C08091E80082FF06C080917B
:10069000E8008B778093E80004C080913F048111CB
:1006A000F2CF089580913F048823D9F38091E80028
:1006B00080FFF8CF8091E8008E77ECCF982F909351
:1006C000E900242F762F50E0891731F07091EC006B
:1006D0002091ED005091F00021FD07C09F5F973001
:1006E00071F78093E90081E008953091EB003E7F3F
:1006F0003093EB003091ED003D7F3093ED00309171
:10070000EB0031603093EB007093EC002093ED0030
:100710005093F0002091EE0027FDE0CF80E0089597
:10072000CF92DF92EF92FF920F931F93CF93DF93BD
:10073000C8EDD0E088818F7E8883E7EDF0E080818E
:100740008160808384E082BF81E08093320488816D
:100750008E7F888302EE10E0F80110821092DA009A
:1007600081EEC82ED12CF601108288818F77888384
:1007700088818068888388818F7D888319BC1092E6
:100780003F041092400410923E0410923D0490EEFB
:10079000E92EF12CF70180818B7F80838881816035
:1007A000888342E060E080E00E945E03F601808181
:1007B0008E7F8083F8018081816080838081886062
:1007C0008083F70180818E7F808388818061888328
:1007D000DF91CF911F910F91FF90EF90DF90CF901D
:1007E0000895FC018091470490914804861797076B
:1007F000A0F06115710529F49091E8009E7790931F
:10080000E80090E06115710551F4911108C08091E4
:10081000E80082FF34C080E00895BC01F2CF8091EF
:100820003F048823C1F18530C1F18091E80083FD48
:1008300030C08091E80082FDEACF8091E80080FF1F
:10084000E1CF8091F3002091F200382F61157105FE
:1008500019F02830310558F091E02830310509F0C1
:1008600090E02091E8002E772093E800CBCF819193
:100870008093F100615071092F5F3F4FE7CF809166
:100880003F04882341F0853041F08091E80083FFE8
:10089000BECF81E0089582E0089583E00895089531
:1008A00080913404089587E797E790930108809337
:1008B000000888E19AE00FB6F894A895809360004C
:1008C0000FBE90936000FFCF9C014FB7F8948091CA
:1008D0002B0490912C04A0912D04B0912E044FBFB5
:1008E000821B930B08952FB7F89480912B0490915D
:1008F0002C04A0912D04B0912E042FBF08959C01CB
:10090000FC0132969FEF80E04191461751F09F3FE6
:1009100019F4411101C0982F8F5F8630A9F79F3FCE
:1009200009F40895290F311D97FD3A95F901628365
:10093000089520912804309129042817390771F06F
:100940009093290480932804E0912604F0912704D1
:10095000309721F00084F185E02D099408952091CD
:100960002404309125042817390771F09093250449
:1009700080932404E0912604F0912704309721F01D
:100980000680F781E02D09940895E0912604F09106
:100990002704309721F00190F081E02D099480E048
:1009A0000895452B39F0682381E06F3F09F080E01E
:1009B0008170089581E0FCCFDC0160914903809152
:1009C0004A03962F891301C00895292F30E0F901B9
:1009D000EE0FFF1FEF5BFC4F408151814A175B0711
:1009E000A1F487E08A9FA0018B9F500D1124475FDF
:1009F0005C4F81E0FA0184839613E6CF2F5F3F4F6F
:100A0000237033272093490308952F5F3F4F922F80
:100A10009370D8CF1092A6021092A502E9E0F3E0FD
:100A20008581811102C014821682379683E0E134F9
:100A3000F807B1F70895EDE4F3E0848195812AE0A9
:100A400030E0B9010E94022F6093170186818093E4
:100A50001601828580931501848580931401868513
:100A60009785B9010E94022F6093130180898093BA
:100A70001201828980931101848980931001089565
:100A800080914D0390914E0390931901809318012A
:100A900008950E9473049C019091160280911702A0
:100AA000982B21F030931302209312029091180298
:100AB00080911902982B21F030931102209310029B
:100AC000E0912604F0912704309749F082E080936A
:100AD00014020480F581E02D84E192E009940895E8
:100AE00090911602803F59F48091170287FF0DC044
:100AF0001092170291110BC010920E0208C0813F94
:100B000081F48091170218169CF3992381F080914B
:100B1000180290911902892B09F064C010920D02FD
:100B20000895823F49F497FFF0CF1092160280910A
:100B300017028111ECCFE0CF833F19F41916ACF303
:100B4000E4CF20911802893F29F41216F4F610928E
:100B50001802DBCF8A3F19F427FFD7CFF8CF2091B7
:100B600019028B3F29F427FFD0CF10921902CDCF65
:100B70008C3F19F41216CCF3C8CF843F31F4809126
:100B800015028E7F80931502C0CF853F21F480919E
:100B900015028D7FF7CF863F21F4809115028B7F60
:100BA000F1CF873F21F480911502877FEBCF883FFB
:100BB00021F4809115028F7EE5CF8D3F31F4809135
:100BC0000F028E7F80930F02A0CF8E3F21F4809181
:100BD0000F028D7FF7CF8F3F09F097CF80910F02E3
:100BE0008B7FF0CF089580910F0280FF0CC0609141
:100BF000110170E07595679575956795611571059B
:100C000049F1862F089581FF06C06091110170E0BF
:100C100075956795F3CF6091110182FD0BC090919E
:100C20000D029923A1F06091100180911101961796
:100C300038F0682F70E06038710500F38FE7089591
:100C4000899FC001112470E00E94162FF4CF61E04B
:100C500070E0D7CF81E0089580910F026091550335
:100C60007091560380FF16C020911501269FC00188
:100C7000279F900D1124BC01769567957695679511
:100C80006038710508F043C06115710509F441C071
:100C9000862F089581FF0BC020911501269FC0016A
:100CA000279F900D1124BC0176956795E9CF82FFAF
:100CB00009C0809115019B01829FB001839F700D37
:100CC0001124DECF20910E022223D1F29091140143
:100CD00080911501482F50E0291748F0CB01849FDF
:100CE000B001859F700D949F700D1124C9CF289F6E
:100CF00090011124269FA001279F500D369F500D73
:100D00001124692F70E0CA010E94022FB9CF8FE72A
:100D1000089581E00895803F31F40E942C0681956A
:100D2000809317020895813F19F40E942C06F8CF92
:100D3000823F31F40E942C0681958093160208951B
:100D4000833F19F40E942C06F8CF893F29F40E94B2
:100D5000F3058093180208958A3F21F40E94F30559
:100D60008195F7CF8B3F31F40E94F30581958093F5
:100D7000190208958C3F19F40E94F305F8CF843FBF
:100D800031F4809115028160809315020895853FAA
:100D900021F4809115028260F7CF863F21F4809183
:100DA00015028460F1CF873F21F48091150288609D
:100DB000EBCF883F21F4809115028061E5CF8D3F14
:100DC00031F480910F02816080930F0208958E3F6D
:100DD00021F480910F028260F7CF8F3FB9F78091A5
:100DE0000F028460F1CF80E00895F894E82FE29537
:100DF000EF70F0E031A1282F2F7081E090E001C06A
:100E0000880F2A95EAF7982F9095932391A392A1A2
:100E1000892B82A3789408959091F40192FF06C0E3
:100E2000282F28712830F9F4877F846093FF06C04B
:100E3000282F28712831F1F4877E84612091F501F3
:100E400020FF06C0382F38713830D9F4877F816091
:100E500021FF06C0282F28712831D1F4877E8161B7
:100E600094FD877E0895282F24712430F9F68B7F16
:100E70008860DCCF282F2471243101F78B7E8861B4
:100E8000DDCF382F3171313019F78E7F8860E0CF98
:100E9000282F2171213121F78E7E8861E1CFCF93F8
:100EA000DF93EC0182389105A9F1D8F581339105E2
:100EB00009F496C048F58932910509F48AC08A97E9
:100EC00009F495C0C11521E5D20708F0BCC0C115D1
:100ED00030E5D30708F014C1C83ED10508F09CC026
:100EE000C03ED10560F5C83AD10508F087C0C53AC3
:100EF000D10508F0FDC0C130D10509F12097F9F006
:100F0000C430D105E0F440C08533910509F45AC0DE
:100F1000C997C1F68091F401837089F0C0EED0E0EA
:100F20000EC0833E910599F170F4803E910501F168
:100F3000823E910539F68091F40182FD21C0CE01F7
:100F4000DF91CF910895863E910561F1873E91052D
:100F500071F1843E910509F0B5CF8091F50181FFD3
:100F6000EECF8091F401C7EED0E084FD0DC0E7CF55
:100F70008091F40180FD12C19091F50190FFDFCFC7
:100F8000C3EED0E084FFDBCFD0E0C0E0D8CF8091CB
:100F9000F40182FD06C19091F50190FDBFCF84FF61
:100FA000CECFF2CF8091F40183FDDDCFC8CF809109
:100FB000F40183FDF9C09091F50191FFF0CFC4EEEB
:100FC000D0E0BDCF8091F40185FFB9CFC9E2D0E078
:100FD000B6CF8091F40185FFB2CFC5E3D0E0AFCFAB
:100FE0008091F40186FFABCFCAE2D0E0A8CF809118
:100FF000F40186FFA4CFC1E3D0E0A1CFCF3BD10560
:1010000018F6C85AD0E0CC0FDD1FC85DDE4F09903E
:10101000D881C02DD46493CFC11540E2D40758F4D1
:10102000C11581E0D80708F08ACFC03FD10508F488
:10103000ABCFD06584CFC11590E4D90708F4A4CF15
:10104000DF70D06A7CCFC11525E5D20700F5C11548
:1010500034E5D30708F08AC0C11543E5D40708F08A
:1010600071C0C11582E5D80708F467C0CE0183704E
:10107000992721E030E002C0220F331F8A95E2F762
:10108000C695C69580E2C89FE001112452C0C115E3
:1010900099E5D907A8F4C11528E5D20708F06BC077
:1010A000C11536E5D30708F06FCF8C2F0E940C07CF
:1010B000C82FD0E0DC2FCC27CC27DF71D0623FCF08
:1010C000C1154AE5D40708F45BC0CE0190568115DE
:1010D000904208F059CF8D2F8F710E940C0790E03D
:1010E000982F882788279F719C012C2BE901E6CF38
:1010F000C55AD0E0CB5DDE4FC881D0E0D0641FCFB1
:10110000CE01E4E096958795EA95E1F783702C2F60
:1011100026952695237040E2249F90011124382BB8
:101120008C2F8370C1E0D0E002C0CC0FDD1F8A9508
:10113000E2F7C22BD32BDC6802CFDC2FCC27C16FA8
:10114000D06AFDCECE018370992721E030E002C045
:10115000220F331F8A95E2F7C695C69590E2C99F84
:10116000E0011124C22BD32BDA68E9CEDC2FCC2787
:10117000C46FD06AE4CEDC2FCC27C06FD06ADFCE3C
:101180008C2F8F700E940C0734E0D695C7953A9546
:10119000E1F7CF709C2FEC01D069D1CEC9E3D0E04C
:1011A000CECEC2EED0E0CBCEC6EED0E0C8CE80919F
:1011B000EC01882331F01092EC011092EB011092B7
:1011C000EA010895CF93C82F8091F50182FD0CC0EC
:1011D0008091EC018C1741F00E9473049093EB0115
:1011E0008093EA01C093EC01CF910895809590918E
:1011F0004B04982390934B0408958095909180021E
:10120000982390938002089590918002892B809377
:10121000800208951092E1011092E0011092DF0126
:10122000089580914F0390915003892B89F00E947B
:1012300073042091EA013091EB01AC01421B530B86
:1012400081E020914F03309150034217530708F477
:1012500080E0817008958091DE0181111092DE019D
:1012600008952091DD0190919C01291302C080E036
:10127000089530E0F90153E0EE0FFF1F5A95E1F7B2
:10128000E356FE4F5181561306C05081581303C0D8
:101290005281541304C02F5F3F4F2770E6CF81E087
:1012A00008958091DD0190919C01981301C00895EB
:1012B0008F5F8770FACF9E3F51F1292F220F220FA7
:1012C000E22FE90FE80F9E2F9770E695E695E695D9
:1012D00083E0E89FF0011124E557FE4F50E040E025
:1012E00080E0219130E0092E02C0369527950A94BE
:1012F000E2F721703327042E01C0220F0A94EAF787
:10130000822B4F5F5F4F4330510559F7089580E0BE
:1013100008959E3F71F1292F220F220FE22FE90F2E
:10132000E80F8E2F877041E001C0440F8A95EAF7DD
:10133000E695E695E69583E0E89FF0011124E557F0
:10134000FE4F30E020E070E05191DF011197CB01BA
:10135000022E02C0969587950A94E2F781708195D6
:101360008527842385278C932F5F3F4F23303105BA
:1013700059F7089592959F70963091F058F4925FC6
:101380009F70923058F4803F19F030F4883E30F46A
:1013900081E008959A5FF4CF843FD1F380E008950F
:1013A000883EB0F3813FD1F7F3CF9C013A952115E8
:1013B0003F4150F5FC01EE27F170BC0166277270C9
:1013C000AC01442754709C012227387094FF0EC052
:1013D00080E1EF2B09F480E0672B09F08062452B58
:1013E00009F08064232B89F08068089581E0EF2B59
:1013F00009F480E0672B09F08260452B09F08460D6
:10140000232B19F08860089580E0089580932F04BD
:10141000709331046093300480913F048430F9F478
:101420008093E9008FEF9091E800815095FD06C010
:1014300095ED9A95F1F700008111F5CF8091E800C4
:1014400085FF0DC050E040E063E070E08FE294E083
:101450000E9415038091E8008E778093E80008953C
:10146000BC0184E00C94060ABC0183E00C94060ADB
:101470009C0184E08093E9009FEF8091E800915007
:1014800085FD06C085ED8A95F1F700009111F5CF35
:101490008091E80085FF0CC050E040E066E070E01D
:1014A000C9010E9415038091E8008E778093E800BF
:1014B0000895CF93DF93EC0181E08093E9008FEFF3
:1014C0009091E800815095FD06C095ED9A95F1F751
:1014D00000008111F5CF8091E80085FF14C050E035
:1014E00040E068E070E0CE010E9415038091E800C2
:1014F0008E778093E80088E0FE01A5E3B4E00190D8
:101500000D928A95E1F7DF91CF910895019708F444
:101510000895EFE9FFE03197F1F700C00000F6CF42
:101520000F931F93CF93DF930DE413E0C7EDD0E04B
:10153000CE010E946D2FF80181938F012196C93F42
:10154000D105B1F7CDEDD3E0FE01859194910097DF
:1015500011F0FC0109952896F4E0C537DF07A1F7E3
:10156000DF91CF911F910F9108950F931F93CF9308
:10157000DF93843000F561111EC024E0829F80015A
:10158000112450E0440F551F040F151F09531F4F1E
:10159000C8010E946D2FC82FD0E0DC2FCC27C801D6
:1015A00001960E946D2F9E01282BC901DF91CF91DA
:1015B0001F910F91089590E080E0F8CF0F931F9353
:1015C000CF93DF93843030F5643020F5453010F54B
:1015D000C42FD0E0CC0FDD1F2AE0629FC00DD11DCB
:1015E000112438E2839FC00DD11D1124CE018796AE
:1015F0000E946D2F082F10E0102F0027CE01889633
:101600000E946D2F9801282BC901DF91CF911F9166
:101610000F91089590E080E0F8CF462F20917E0250
:1016200030917F02232B91F47E3F39F46E3F71F4A9
:1016300080917C0290917D020895843038F474305A
:1016400028F4653018F4672F0C94DE0A90E080E0EF
:101650000895CF92DF92FF920F931F93CF93DF9362
:101660006C0100914A0480914904082BC7E0D0E046
:1016700010E0FC2EC8010C2E02C0959587950A94A7
:10168000E2F780FD0CC02197A0F7F12C8F2DDF91A0
:10169000CF911F910F91FF90DF90CF900895B601E9
:1016A0008C2F0E940D0B0E944F07019761F3EECF24
:1016B000CF93DF93EC010E94290BBE010E940D0B1A
:1016C000DF91CF910C944F07FC01868197810097A1
:1016D00021F00E944F070C94BA09808191810E94E9
:1016E000580BF9CF1F93CF93DF9300D000D00F9208
:1016F000CDB7DEB749835A8389819A816623B9F0D1
:101700002223A9F00E94290B182F682F89819A8122
:101710000E94890969817A81812F0F900F900F9023
:101720000F900F90DF91CF911F910C940D0B0E94A1
:101730005B09182FEFCFFC01262F86819781009738
:1017400039F4408151816281738184810C94720BE0
:10175000089583E290E00E946D2F823E89F484E236
:1017600090E00E946D2F8E3C59F485E290E00E943B
:101770006D2F91E08A3E09F090E0892F81700895E5
:1017800080E0FCCFCF9384E090E00E946D2FC82FC3
:1017900082E290E00E946D2F982F8C2FCF910895B8
:1017A0000F931F93CF93DF930DE413E0C7EDD0E0C9
:1017B000CE010E946D2FF80161918F01681719F019
:1017C000CE010E947B2F2196C93FD10589F7DF9179
:1017D000CF911F910F910895EDE4F3E0128E138ED7
:1017E0008FEA90E09183808385E0848F88E893E19D
:1017F000938382838AE090E09583848324E130E0C0
:101800003783268348E050E051874087938782875B
:101810002EE130E0358724879787868720E530E002
:10182000318B208B538B428B48E250E0558B448B9D
:1018300042E350E0578B468B48EC50E0518F408F8D
:10184000158E978F868F31A320A30E94D00B0C9406
:10185000900ACF93DF93C9E9D1E060E0CE010E9406
:101860007B2F2196C11584E0D807B9F7DF91CF917E
:1018700008950F931F93CF93DF938901843028F548
:10188000611123C0423008F521153C4531F4209107
:101890000E0130910F01232BC1F094E0899FE001EC
:1018A000112450E0440F551FC40FD51FC953DF4FFB
:1018B000612FCE010E947B2F602FCE010196DF9118
:1018C000CF911F910F910C947B2FDF91CF911F919E
:1018D0000F9108950F931F93CF93DF938901843065
:1018E00048F5643038F5453028F521153C4531F48C
:1018F00020910E0130910F01232BE1F0C42FD0E095
:10190000CC0FDD1F9AE0699FC00DD11D112498E214
:10191000899FC00DD11D1124612FCE0187960E9491
:101920007B2F602FCE018896DF91CF911F910F9171
:101930000C947B2FDF91CF911F910F910895CF933E
:10194000C82F6FEF811162EE83E290E00E947B2F3F
:101950006FEFC1116EEC84E290E00E947B2F6FEF7D
:10196000C1116AEE85E290E0CF910C947B2F5F92DB
:101970006F927F928F929F92AF92BF92CF92DF929F
:10198000EF92FF920F931F93CF93DF93CDB7DEB704
:1019900064970FB6F894DEBF0FBECDBFC0900E01A6
:1019A000D0900F0181E090E090930F0180930E01A1
:1019B00087E2E82E83E0F82E97E3A92E93E0B92E74
:1019C00010E0450100E015C0F30125913491452D4B
:1019D000602F812F0E946A0C82E0680E711C539464
:1019E000E5E05E12F1CFFAE08F0E911C0F5F04303C
:1019F00019F03401512CE8CFF7012591349140E0E2
:101A000060E0812F0E94390CF701329625913491C4
:101A100041E060E0812F0E94390C84E0E80EF11C67
:101A20001F5FE8E2AE0EB11C143009F0CACF0E946D
:101A3000EC0B1A8219821C821B821E821D82188660
:101A40001F8288EC90E09A87898709EF10E04AE0CE
:101A500050E0B801CE0101960E949F2F065F1F4FF4
:101A60000934F1E01F0799F77E018BE0E80EF11CC5
:101A70008AE0F70111928A95E9F74AE050E0B8014F
:101A8000C7010E949F2F065F1F4F0939F1E01F0712
:101A9000A1F7D0920F01C0920E0164960FB6F89490
:101AA000DEBF0FBECDBFDF91CF911F910F91FF9091
:101AB000EF90DF90CF90BF90AF909F908F907F90EE
:101AC0006F905F90089580E00E949F0C60E086E236
:101AD00090E00E947B2F0E94B70C0E94290C81E0AD
:101AE0000C949F0C9B01883070F49AE0899FB001A0
:101AF000112467507F4F4AE050E0C9010E945D2FDA
:101B000090E080E008958FEF9FEF08958F929F926D
:101B1000AF92BF92CF92DF92EF92FF920F931F93FB
:101B2000CF93DF93CDB7DEB72A970FB6F894DEBF19
:101B30000FBECDBF04E713E0F12CE12C82E0C82EEC
:101B400086E2D82E9CE2A92E96E2B92E2AE1822EB8
:101B500025E2922EF801D182C082B382A2829582C0
:101B60008482F58AE48ABE016F5F7F4F8E2D0E94CA
:101B7000720D892B29F489859A85F801938B828BC4
:101B8000FFEFEF1AFF0A0A5E1F4F88E0E816F10424
:101B900009F72A960FB6F894DEBF0FBECDBFDF91CE
:101BA000CF911F910F91FF90EF90DF90CF90BF905A
:101BB000AF909F908F900895CF92DF92EF92FF9217
:101BC0000F931F93CF93DF93CDB7DEB72A970FB64E
:101BD000F894DEBF0FBECDBFECE2F2E080E5DF019E
:101BE0001D928A95E9F7E9E0F3E088E3DF011D92B1
:101BF0008A95E9F78CE2C82E82E0D82E7F0109E4AD
:101C000011E0F701D182C0824AE050E0B801CE0174
:101C100001960E945D2F88E0FE013196D601019069
:101C20000D928A95E1F789859A85D70113969C9341
:101C30008E931297BAE0CB0ED11CE7E0EE0EF11CAA
:101C4000065F1F4F0939F1E01F07D9F62A960FB634
:101C5000F894DEBF0FBECDBFDF91CF911F910F91E2
:101C6000FF90EF90DF90CF9008959F92AF92BF9238
:101C7000CF92DF92EF92FF920F931F93CF93DF9358
:101C800000D000D0CDB7DEB719821A821B821C8229
:101C900086E5E82E81E0F82E10E000E0CC24C39425
:101CA000D12C2FE5A22E21E0B22EF70181917F01E8
:101CB0008F3F09F445C0F894E82FE295EF70F0E00B
:101CC00021A18F70A60102C0440F551F8A95E2F72B
:101CD000CA01922F982B91A392A18095892382A368
:101CE000789400C0EAE5F1E0912C31E021912F3F9A
:101CF00009F46BC0A22FA295AF70B0E090968C91C2
:101D000090E02F7002C0959587952A95E2F780FDA7
:101D10005CC0832F982A330FAE16BF0639F7F70140
:101D2000319780818F3F11F00E94F50650EA5A9555
:101D3000F1F7E1E0F0E0EC0FFD1FE00FF11F908202
:101D40000F5F1F4F0430110509F0AFCF44E050E0A2
:101D5000BE016F5F7F4F80EF91E00E94402F11E046
:101D6000009709F410E0892B91F189819A81AB8168
:101D7000BC818093F0019093F101A093F201B093A4
:101D8000F30181E08093EF010E9473049093EE01D0
:101D90008093ED018091ED019091EE010E94640429
:101DA0000597C8F08091F001809309028091F101BC
:101DB00080930A028091F20180930B028091F301DB
:101DC00080930C021092EF0106C080E0A3CF8091B7
:101DD000EF018111DFCF812F0F900F900F900F90A7
:101DE000DF91CF911F910F91FF90EF90DF90CF90F7
:101DF000BF90AF909F9008958091800290914B0486
:101E0000892B809380018091EC01882309F18091D6
:101E10004F0390915003892B29F00E9411098111E1
:101E20000E94D708809180019091EC01892B8093CA
:101E3000800120E082E891E0FC013191CF01311175
:101E40002F5FF1E088389F07B9F721110E94D7086A
:101E500048E050E062EE71E080E891E00E94402F9F
:101E6000892BA9F088E0E0E8F1E0A2EEB1E0019072
:101E70000D928A95E1F7E0912604F09127043097BE
:101E800031F00280F381E02D80E891E0099408951B
:101E9000EF92FF920F931F93CF93DF93EC018A850C
:101EA000811134C0EB80FC8087E5F81A26E12E9D75
:101EB000C0012F9D900D1124DC01AC58BC4F14962D
:101EC000ED91FC911597309731F054966D917C917E
:101ED00086589C4F099586E18E9D80018F9D100D3F
:101EE00011240C581C4FF80187810E94FD08F8014D
:101EF00080850E94F6080E94FC0E188219861B86B7
:101F00001E821D821092730310927203DF91CF9193
:101F10001F910F91FF90EF900895CF93DF93EC0105
:101F20008989811118C081E0898B8F810E94040901
:101F300080914B049885892B80934B040E94FC0E62
:101F4000EA81FB81309739F06C897D89CE01069654
:101F5000DF91CF910994DF91CF91089580911A017B
:101F6000877F80931A0182E00E94F60880911A010F
:101F700084FF06C08F7E80931A0182E00E940409CC
:101F800080911A0185FF06C08F7D80931A0180E23F
:101F90000E9404090C94FC0E90E080E00E94AF04C3
:101FA00090E080E00E94990410924B040E94FC0E85
:101FB00086E0E4E1F2E0DF011D928A95E9F71092F4
:101FC0000E0210920D0210920F020C94490580939C
:101FD0004A040C94CC0F80914A04982F9670963046
:101FE00019F488600C94E70F877FFCCF21E030E084
:101FF00001C0220F8A95EAF7209580914A04822336
:102000000C94E70F9091E101809589238093E10181
:10201000282F277091F4282F082E000C330B9217CD
:10202000130659F09091F50192FD07C085958595AD
:1020300085950E94F60F0C940A090895CF93C091DC
:10204000F501C2FB992790F9981799F080FBC2F926
:10205000C093F5016091F40184E090E00E947B2F31
:102060006C2F82E290E00E947B2F82E0CF910C9453
:102070000210CF91089521E030E001C0220F8A952F
:10208000EAF780914A04822B0C94E70F9091F501B6
:1020900092FD10C098E0899F90011124622B6093FB
:1020A000E1010E943B100E9473049093E001809331
:1020B000DF0108950C943B10809349040C94CC0FDD
:1020C00010928002E2E8F1E086E0DF011D928A953D
:1020D000E9F70C94CC0F1F93CF93DF93CDB7DEB706
:1020E000AA970FB6F894DEBF0FBECDBF81E494E08F
:1020F0002091F100DC012D93CD01B4E089349B07E0
:10210000B9F780914204833009F472C0B8F4813089
:1021100009F449C0823009F4B3C08091E80083FF1C
:1021200096C280914104909142049A3008F08FC287
:10213000E92FF0E0E754F04D0C942A2F8A3009F48F
:102140008EC08B3009F471C0893039F78091410419
:10215000813219F78091450490914604009711F05F
:102160000297D9F68091E800877F8093E8008091FC
:10217000E80082FF38C09091F3008091F20002974E
:1021800031F48091F100813011F0863021F480919A
:10219000F100809334048091E8008B778093E8000D
:1021A0000E943F03BACF80914104813A09F0B5CF34
:1021B0008091E800877F8093E800809145049091AA
:1021C0004604892B61F468E085E394E070E00E94A6
:1021D000F1038091E8008B778093E8009ECF60E068
:1021E00090E080E0F3CF80913F048111C0CF95CF84
:1021F00080914104813A09F090CF809145049091FB
:102200004604892B09F089CF8091E800877F80936D
:10221000E8008091E80080FFFCCF80911C01809352
:10222000F1008091E8008E77B9CF8091410481322E
:1022300009F073CF8091450490914604892B09F0F1
:102240006CCF8091E800877F8093E8000E943F0375
:102250008091430480931C010E9460105ECF8091A6
:102260004104813209F059CF8091E800877F809343
:10227000E8000E943F0380914404809333044DCFD3
:1022800080914104813A09F048CF8091E800877F2E
:102290008093E8008091E80080FFFCCF80913304B8
:1022A000BECF803899F0823809F0D1C180914504C1
:1022B0008F70873008F0CBC18093E9008091EB00EC
:1022C00085FB882780F91092E90006C080913D04C3
:1022D00090913E04911182609091E800977F9093D5
:1022E000E8008093F1001092F1008091E8008E7771
:1022F000AAC1882309F498C1823009F0A8C180914D
:10230000430481119BC1809145048F702FEF280FEA
:10231000263008F09CC18093E9002091EB0020FF5B
:102320008DC1933031F48091EB0080628093EB009B
:1023300085C19091EB0090619093EB0021E030E03B
:1023400001C0220F8A95EAF72093EA001092EA0072
:102350008091EB008860EACF811179C1109143042C
:102360001F778091E3008078812B8093E300809138
:10237000E800877F8093E8000E943F038091E80097
:1023800080FFFCCF8091E30080688093E30082E0CF
:10239000111183E080933F045AC18058823008F0C5
:1023A00056C120914304309144042C3DE3E03E07A4
:1023B000A1F583E08A838AE289834FB7F894DE012E
:1023C000139620E03EE051E2E32FF0E050935700F7
:1023D000E49120FF03C0E295EF703F5FEF708E2F16
:1023E00090E0EA30C0F0C7968D939D932F5F243123
:1023F00059F74FBF8091E800877F8093E8006AE239
:1024000070E0CE0101960E94F1038091E8008B7785
:102410008093E8001CC1C096E7CF8091450490915D
:102420004604432F55274330510509F44AC078F537
:102430004130510509F485C08BE590E0EFE6F4E00A
:102440004230510509F003C12091E800277F209315
:10245000E80020914704309148048217930708F45C
:102460009C0140E02115310509F070C041116EC09A
:102470008091E80082FDC9CF80913F04882329F232
:10248000853019F28091E80083FFF2CFBECF413250
:10249000510509F447C04232510509F0D8C08330D4
:1024A000910508F0D4C0FC01EE0FFF1FEE58FE4F5F
:1024B0000190F081E02D81599E4FDC018C9190E0DC
:1024C0001DC0332721303105E9F02115310579F0A0
:1024D00022303105F9F02330310509F0B8C0ECEDB8
:1024E000F4E0E4918E2F90E0ECEDF4E007C0E8E436
:1024F000F5E0E4918E2F90E0E8E4F5E0009709F430
:10250000A6C0A2CFE2E3F5E0E4918E2F90E0E2E3F3
:10251000F5E0F4CFEAEFF4E0E4918E2F90E0EAEFFB
:10252000F4E0ECCF8330910508F091C0880F991F3B
:10253000FC01E858FE4F0190F081E02D89E090E029
:1025400083CF82E190E0EAECF4E07ECF80913F041B
:10255000882309F45ACF853009F457CF8091E800D9
:1025600083FD53CF8091E80082FD82CF8091E80007
:1025700080FF78CF9091F3008091F2002115310512
:1025800019F08830910550F041E0089709F040E0DB
:102590008091E8008E778093E80064CF4491409367
:1025A000F1003196215031090196E8CF803809F0C9
:1025B0004EC08091E800877F8093E80080914004BE
:1025C0008093F10092CE811142C0109143041230E9
:1025D000F0F58091E800877F8093E8001093400435
:1025E0000E943F03112311F084E005C08091E300B5
:1025F00087FDFACF81E080933F0442E061EC81E007
:102600000E945E0342E261EC84E00E945E0342E2CB
:1026100061EC82E00E945E0342E260EC83E00E9493
:102620005E0380913F0413C080914304813079F4AC
:1026300081E0933009F080E080933E041092E9003D
:102640008091E800877F8093E8000E943F0380919B
:10265000E80083FF0AC08091E800877F8093E8004C
:102660008091EB0080628093EB00AA960FB6F894FD
:10267000DEBF0FBECDBFDF91CF911F91089588239C
:1026800021F00E94F6080C94FC0E0895882339F07E
:1026900090914B04982B90934B040C94FC0E08954E
:1026A000882321F00E94FD080C94FC0E08958823D5
:1026B00021F00E9404090C94FC0E08958823B1F1C6
:1026C0009CEF980F913A70F4E2E8F1E09191891350
:1026D00003C0DF0111971C9291E0E838F907B1F7C8
:1026E0000C94FC0E90E2980F983050F4877091E0B3
:1026F00001C0990F8A95EAF7892F0E94FD08F0CF53
:102700009BE5980F933020F490E080E00C94AF04A8
:1027100098E5980F973120F490E080E00C949904AC
:10272000803F20F00E9470050C9449050895CF93D6
:10273000DF93EC010E945E13CE010E94D5099E0139
:10274000205E31092830310510F0CD2B21F4DF91C6
:10275000CF910C945013DF91CF910C943F13CF93F2
:10276000C82F882309F452C08CEF8C0F813AF8F4FB
:10277000E2E8F1E088E891E0DF012D91C21759F01D
:102780008A179B07D1F76C2F80E891E00E947F04A5
:10279000CF910C94FC0E2191C21303C0DF0111975D
:1027A0001C928E179F07B9F70E94FC0EECCF80E2B7
:1027B0008C0F883048F4C77081E001C0880FCA953B
:1027C000EAF70E940409E4CFEBE5EC0FE33040F4B4
:1027D000F0E0EB5DFE4F808190E0CF910C94AF0470
:1027E000E8E5EC0FE73150F4F0E0EE0FFF1FE85D95
:1027F000FE4F80819181CF910C949904C03F30F0BD
:102800008C2F0E948B06CF910C944905CF9108958F
:102810001F93CF93DF93182FC0916D03D0916E0358
:10282000893321F0C0916B03D0916C03812F0E94FA
:10283000AF13209731F4812FDF91CF911F910C942A
:102840005E138FE99FE00197F1F700C00000219728
:10285000F0CF0F931F93CF93DF93C42FD22FFC01A0
:1028600082818823A1F0409371030E9473049093A6
:10287000700380936F03C77081E001C0880FCA9511
:10288000EAF7DF91CF911F910F910C94571310919C
:102890007103141339C080916F03909170030E94EB
:1028A000640420916503309166038217930760F5F5
:1028B000C0E2CD0F1D17B9F080E2810F883040F4DF
:1028C000177081E001C0880F1A95EAF70E94501333
:1028D000C83048F481E09D2F977001C0880F9A9509
:1028E000EAF70E945713802F0E940814C83098F40A
:1028F000D77081E001C0880FDA95EAF7DF91CF91B8
:102900001F910F910C945013C77081E001C0880F84
:10291000CA95EAF7F3CFDF91CF911F910F910895F8
:10292000AF92BF92CF92DF92EF92FF920F931F93DD
:10293000CF93DF93EC018AE0A82E2881222309F4AB
:102940008CC02130C9F599818A81913021F4229679
:102950000E94081405C0923029F422960E94AF13F9
:102960002196EBCF933021F422960E945E13F8CF8C
:10297000943011F02196F4CF229630E020E0AE01A1
:102980004F5F5F4F8053990B8A30910550F0215073
:10299000310930F38FE99FE00197F1F700C00000A3
:1029A000F6CFA29EB001A39E700D11249C01260FAC
:1029B000371F8981EA01E3CFE22FF0E0E154FE4FB7
:1029C000B490822F86958695869590E0FC01E1551E
:1029D000FE4FE4902770F12C022E02C0F594E7948C
:1029E0000A94E2F731E0E322FF24FC01E156FE4FB6
:1029F000C490D12C022E02C0D594C7940A94E2F759
:102A000031E0C322DD24FC01E157FE4F049110E0C8
:102A100002C0159507952A95E2F701701127E11478
:102A2000F10419F081EE0E94AF13C114D10419F022
:102A300086EE0E94AF138B2D0E940814CD2819F04A
:102A400086EE0E945E13EF2819F081EE0E945E135D
:102A5000012B09F485CF8CE27BCFDF91CF911F91C1
:102A60000F91FF90EF90DF90CF90BF90AF900895BF
:102A7000CF93DF93EC010E94D5099E01205E3109BE
:102A80002830310510F0209739F40E9457138C2F0D
:102A9000DF91CF910C94AF130E944613F8CF6623B9
:102AA00029F020914B04226020934B049C01305666
:102AB000211540E2340720F0305E2115304108F442
:102AC00099270C943815DF92EF92FF920F931F9382
:102AD000CF93DF937C018B01D42E80911A0182FF6A
:102AE0008CC0C091A302D091A402CE15DF0521F0C5
:102AF000E114F10409F081C080911A018B7F809369
:102B00001A0181FD73C08091A1029091A202A801D7
:102B1000481B590B81E0209118013091190142178F
:102B2000530708F480E08170F82E80911A01F0FAC2
:102B300081F980931A01FE0183E0F695E7958A9565
:102B4000E1F7EE71FF27EF57FD4F20813181AE0194
:102B50004F70552781E090E002C0880F991F4A9579
:102B6000E2F7FF2009F444C0822B932B91838083EA
:102B70008091800281FF08C080911A01806180935A
:102B80001A0182E00E94FD088091800285FF08C042
:102B900080911A01806280931A0180E20E94FD08F0
:102BA0006F2DCE010E944F15DD2031F0809168031A
:102BB00085FF02C086FF3BC080916B0390916C0340
:102BC0000E94860A8091A3029091A4029C01305633
:102BD000211540E2340720F0305E2115304108F421
:102BE00099270E9497130E94AE0F1DC081E09BCFD2
:102BF0008095909582239323B9CFC7019927970198
:102C00003056211540E2340728F0305E211530415E
:102C100008F0C7010E9497138091A3029091A4022B
:102C20008E159F0501F31093A2020093A102DF917C
:102C3000CF911F910F91FF90EF90DF90089569EE73
:102C40007EEF90E080E00E94992F60E082E090E0CB
:102C50000E947B2F60E083E090E00E947B2F109227
:102C6000490460E084E090E00E947B2F60E082E213
:102C700090E00E947B2F60E085E090E00E947B2F37
:102C800060E086E090E00E947B2F6FEF87E090E0AD
:102C90000E947B2F40E050E0BA0188E090E00E9463
:102CA0008D2F60E08DE090E00E947B2F40E050E0AF
:102CB000BA0188E190E00E948D2F60E087E190E00A
:102CC0000E947B2F40E050E0BA018CE190E00E942E
:102CD0008D2F70E060E080E290E00E94992F40E04C
:102CE00050E0BA0188E190E00E948D2F80E00E94C0
:102CF0009F0C0E94630D40E050E0BA018FE090E02D
:102D00000E948D2F40E050E0BA0183E190E00C94E6
:102D10008D2F8F929F92AF92BF92CF92DF92EF92C0
:102D2000FF920F931F93CF93DF9300D000D0CDB7C6
:102D3000DEB77C01DC0113964D915C9114971196DE
:102D40006C9111978C910E94D104811179C061E03E
:102D5000C7010E949B0B8C01F7018281811111C078
:102D6000D70112968C91811149C00031FFE51F07F0
:102D700009F4EEC001312FE5120709F022C782E005
:102D8000E8C080910C0190910D01019649F364E730
:102D9000C62E63E0D62EB12CA12C99249394809159
:102DA0000C0190910D018A159B05D4F2F6018681E4
:102DB0008823E9F0818592850817190739F48091F5
:102DC0007203909173030817190789F0D6011F96B3
:102DD0009C921F971C961C930E931B97C6010E94F2
:102DE0008D0FC60106960E94480F10924B04BFEF4C
:102DF000AB1ABB0AE6E1CE0ED11CD1CF980122510D
:102E00003F452031310508F0D2C68FEF93E00E9494
:102E10006D2F5EEED52ED00E09E911E0882369F101
:102E20008091E101877061F0D70112968C9188231F
:102E300039F08091F50182FD03C082E00E9402100A
:102E40000F900F900F900F90DF91CF911F910F91E6
:102E5000FF90EF90DF90CF90BF90AF909F908F90BA
:102E600008950115F4E01F07D9F2C8010E946D2FE3
:102E7000811101C0DA940F5F1F4FD110F2CF198278
:102E80001A821B821C82CC24CA9448012FEF821A1A
:102E9000920AC8010E946D2F89831A82882309F43F
:102EA000BFCF813009F048C0580132E0A30EB11CF9
:102EB000C4010E946D2F982E8A83882309F4B0CF15
:102EC000C5010E946D2FD82E8FEF890D833068F4D5
:102ED000580143E0A40EB11CDB82DD2021F0CE01BD
:102EE00001960E9490148501D0CF54E09512FBCF3B
:102EF000580184E0A80EB11CC80103960E946D2FF2
:102F0000DD2009F48DCF882309F48ACF8150990BF5
:102F1000C89E9001C99E300D1124AD2DA150BB0B50
:102F2000CD01820F931F0197F0F2EFE9FFE0319797
:102F3000F1F700C00000F7CFCE0101960E94901477
:102F40005401D1CF81E00E943B100E94EB0F68CF6B
:102F500081E00E94F60FF9CF82E0F5CF4FEFC41663
:102F6000D10411F008F039C662E272E08C2D0E94A3
:102F7000720D892B29F586E18C9DF0018D9DF00D58
:102F80001124EC58FC4F8681813009F062C0809199
:102F9000220290912302892B99F080912402909132
:102FA0002502892B69F080912602909127022091B9
:102FB000280230912902822B932B892B09F453C0CC
:102FC00080910C0190910D018C159D0524F4D092F7
:102FD0000D01C0920C01F701828196E19C9D500188
:102FE0009D9DB00C112495012C583C4F6901D901CD
:102FF00050968C935097928116968C9116979923A0
:1030000009F43FC01A961C930E9319978F5F16967A
:103010008C930E947304F601968785878091EC015A
:10302000878380914B0490918002892B8087019047
:10303000F081E02D309741F0D60154966D917C914E
:10304000C50186589C4F0995109373030093720332
:10305000C4C5823009F0B4CF809126029091270236
:10306000892B09F4ADCF26E12C9DC0012D9D900D3B
:1030700011248C589C4FDC0150961C920E948D0F9D
:103080009FCF882309F4A9C5F9018189882309F410
:10309000A4C5C50186589C4F0E94480F9EC58091CB
:1030A0001A01816080931A01C6C580911A018E7F32
:1030B00080931A010E94AE0FBEC580911A018F7EC7
:1030C000013E110531F0053E1105C9F480911A0148
:1030D0008F7D80931A0180911A0180FFBBC5D701B3
:1030E00012968C910832110528F50E31110508F061
:1030F00074C00430110580F58111A8C5ABC5C801A5
:103100009056811540E2940720F0905E8115904121
:1031100010F780911A0182FF9DC580916A0381FD9D
:1031200099C52BEF31E040E0B60190E080E00E94CD
:10313000631590C50933110558F40D32110518F4C3
:103140000B321105C9F69091680392FDD5CF08C0E6
:1031500004361105C1F3D0CF9091680394FDCCCF14
:10316000882309F4A1C0909180028091EC01282F5E
:10317000292B322F3D7FB1F11092A4021092A302AD
:103180003091680331FD2EC0F80143E0F695E795D4
:103190004A95E1F7EE71FF27EF57FD4F98012F7029
:1031A000332781E090E002C0880F991F2A95E2F74B
:1031B0008095909520813181822393239183808310
:1031C00060E0C8010E944F158091EC018D7F0E9444
:1031D000E20882E00E94021023CE9091680393FDE2
:1031E0008BCFBECF38E0F701ABEFB1E001900D928D
:1031F0003A95E1F71092FD011092FF011092FE0145
:10320000A090A302B090A4020A151B05B1F530915D
:10321000680335FF32C040911A0141FB992490F8B0
:1032200041FF02C036FF29C04091A1025091A20285
:10323000B601641B750B40916503509166036417DA
:103240007507D8F491FF08C080911A0180618093BE
:103250001A0182E00E94FD088091800285FF08C06B
:1032600080911A01806280931A0180E20E94FD0819
:10327000692DC5010E944F15D3CD90911A0121FBF4
:1032800091F990931A018D7F0E94E2081093A40295
:103290000093A302D092A202C092A10280911A01CF
:1032A000846080931A0195CF970140E0B601C80170
:1032B0000E946315B5CD053F4CE5140709F469C0BC
:1032C00008F461C0063F8CE5180709F468C0D7010F
:1032D00012963C91332309F4DCC41092710303303D
:1032E000BDE51B0708F067C00A3FECE51E0730F498
:1032F000C80182509C45449708F067C00E94C20BE9
:103300009093F5018093F40101313CE5130709F432
:103310006CC108F0E9C009305CE5150709F453C138
:1033200008F0B6C005309CE5190709F444C108F05F
:103330009CC00330BCE51B0709F433C108F037C15A
:103340008091F401816002301C4509F42DC1609127
:10335000F4011091F50184E090E00E947B2F612F31
:1033600082E290E00E947B2F0E94601059CD07E21C
:1033700025EE45EE68ED7CE588C406E221EE40EEE0
:1033800063EF7CE582C407E225EE44EE64EF7CE562
:103390007CC406E221EE42EE65EF7CE576C407E2EE
:1033A00025EE46EE66EF7CE570C408E221E045EECE
:1033B00069ED7CE56AC40136FDE51F0709F49ECF7F
:1033C000053A2DE5120709F499CF06315CE515079A
:1033D00009F463C40A358DE5180709F467C108F0DC
:1033E00043C10115ACE51A0709F450C10E3D1C4557
:1033F00009F459C1F70186819781009709F45AC1F0
:103400000E944F07182F092FF701D280C580C29460
:103410003FE0C3228091E1018770C1F0AD2CDD2037
:10342000B1F0892F807F803421F080E2810F8830D5
:1034300068F08091F50182FD09C082E00E940210CF
:103440008091E1018770AA24A3948111A12C902E70
:1034500092942FE09222FBE0F91508F4B8C1E92D0F
:10346000F0E0ED53F04D0C942A2F8091F40180622E
:1034700007302CE5120709F497C08091F4018061B0
:1034800008301C4508F490C08091F40180648CC021
:103490008091F4018B7F0D304CE5140709F484C052
:1034A00080F40B308CE5180709F493C08091F40187
:1034B0008C600C301C4508F477C08091F4018D7F3E
:1034C00073C08091F4018F7E0F30ACE51A0709F4C8
:1034D0006BC08091F401877F00311C4508F464C003
:1034E0008091F4018F7D60C00D3FECE51E0709F46B
:1034F00078C050F505312CE5120709F480C098F426
:103500008091F401837F03314CE5140709F44CC02A
:1035100008F46FC00E9460109091F401892F97FB0E
:1035200087F9805841C00B3F8CE5180709F447C064
:1035300008F053C08091F50181600A3F1C4509F0F5
:1035400006CF8093F50103CF0130BDE51B0709F4D9
:1035500062C0B8F48091F5018C7F0F3FFCE51F0736
:1035600081F38091F501836001151D4550F3809131
:10357000F501982F909591708E7F892B90FB81F9A2
:10358000E0CF01363DE5130709F44BC0053A4DE5A0
:10359000140709F44DC002301D4509F0D8CE60E093
:1035A0003BC08091F40182608093F401D0CE809181
:1035B000F4018460F9CF8091F4018860F5CF8091A7
:1035C000F5018260BECF0E9460108091F401806896
:1035D000EBCF8091F4018E7FE7CF8091F5018E7F54
:1035E000B0CF8091F5018D7FACCF8091F4018F7BBE
:1035F000DBCF0E9460108091F4018F77D5CF80914E
:10360000F40182FB992790F921E0922790FB82F93F
:1036100090FB83F9C9CF61E08EE090E00E947B2FA0
:1036200096CE9091F401892F8F7E94FF8061BCCF5C
:103630009091F401892F8E7F90FF8160B5CF8091AA
:10364000880181110FC089E2E2E8F1E028E831E069
:103650009191891303C0DF0111971C922E173F0728
:10366000B9F748C385E3F0CF0B35EDE51E0701F14F
:103670000C351D4509F0BECE8091F50182FB8827EF
:1036800080F991E089270E941E10B4CE0E9460103C
:103690002FEF34E34CE0215030404040E1F700C0D0
:1036A00000000E9453040E941F16BACB81E0EBCFAA
:1036B00080E0E9CF828100811181882369F0C8010F
:1036C0000E94290BD82E682FC8010E948909B801D1
:1036D0008D2D0E940D0B94CEC8010E945B09D82E3F
:1036E000F6CF202F2F70B22E802F807F19F0B2944A
:1036F00090EFB922DD20A9F0BB2059F080E2810FC4
:10370000883010F0111107C08B2D0E9404090E940F
:10371000FC0E812F5AC080914B04B82AB0924B0402
:10372000F6CF812F0E945E13BB2009F450C080E2C7
:10373000810F883010F0111104C08B2D0E94FD08FC
:1037400003C08B2D0E94F6080E94FC0E40C0302F53
:103750003F70B32E802F807F803219F0B29480EFBB
:10376000B822112321F1113009F4A4C0DD2009F49D
:10377000ADC0CC2009F47DC020E0D7014C9111965A
:103780005C91119712966C91129713967C911397F6
:1037900014968C910E94720B80916A0381FDB9CFBF
:1037A000F701858180FFB5CF8F70858362C08091DE
:1037B000F50182FF40C0DD20C1F1BB2029F08B2D37
:1037C0000E9404090E94FC0E80E00E94AF13A92D04
:1037D000A850BB0B149710F40E94C504812F902FA2
:1037E0000E94BA098111C4C110928A011092890104
:1037F000AA20B1F08091E10180FD12C0D70112969C
:103800001C928595859585950E943B10C7010E9465
:1038100089168091E1018595859585950E94F60F21
:1038200060E0C7010E949B0B0BCB80E00E945E13FF
:10383000BB2069F282CFDD2001F1C11004C080916C
:10384000EC018B2917C041E0C41206C08091EC0145
:103850008B290E94E208BBCF80916903823078F304
:10386000C812EDCF0E94D7088091DE01B812B09245
:10387000DE018B2D0E945713AACFC11006C00E94F3
:10388000D7088B2D0E945013A2CF8091690351E07D
:10389000C5120BC0823008F49ACF809180028B2130
:1038A00009F495CF0E942B09EACF823040F38C11A6
:1038B000E6CF8DCFDD2029F085E08C1508F487CF89
:1038C000D8CF94E09C1508F482CFDBCFCC20C9F28E
:1038D00080916D0390916E03193321F080916B03F9
:1038E00090916C030E94860A812F0E945E136FCF15
:1038F000802F86958695837069F0813009F067CFB7
:10390000812F902F9370D11002C090E080E00E9430
:1039100099045DCF812F902F9370D11002C090E059
:1039200080E00E94AF0453CF812FDD2029F00E9458
:103930008B060E9449054BCF0E947005FACF802F5D
:10394000837091F5D11043CF412F42954695477032
:10395000440F440F812F8F70042E01C0880F0A94EA
:10396000EAF7212F207114FF07C02FE030E001C0DB
:10397000220F4A95EAF72095302F36953695337009
:10398000323069F050F440914904313029F0822BF3
:1039900084230E945C101BCF842B822BFACF282B10
:1039A000809149048227F5CF8695DD2011F0802F84
:1039B0008170882309F40BCF412F429546954770BB
:1039C000440F440F812F8F70042E01C0880F0A947A
:1039D000EAF7212F207114FF07C02FE030E001C06B
:1039E000220F4A95EAF72095302F36953695337099
:1039F000323069F050F440914A04313029F0822B82
:103A000084230E94E70FE3CE842B822BFACF282B4E
:103A100080914A048227F5CFF02FFF70BF2EDD2062
:103A200029F08F2F0E943B10812F24CF812F0E94DD
:103A300050138B2D0E94F60FCACE123F89F160F40D
:103A4000103FB9F0113F81F0DD2009F48CC0C110A6
:103A500060CE802F8F7128C0133F49F1143FA1F72A
:103A60008091F50182FF2FC0802F8F71DD2011F32F
:103A70001BC0DD2081F024E02C1508F4A8CE202FF7
:103A80002F7181E090E001C0880F2A95EAF79091AC
:103A90004A048927B6CF35E03C1508F498CEEFCF1D
:103AA000802F8F71D110C6CF0E943B1090CE80E046
:103AB000DD2009F4A6CF81E0902F9F7101C0880F0F
:103AC0009A95EAF79ECF809169038230A0F18091A8
:103AD000DE01DD20F1F00E94FD088091E101877098
:103AE000843041F40E940A09802F8F710E94F60FE2
:103AF000A12C6DCE80916903C816D0F7402F4F716D
:103B0000B42E842F0E943B1063E08B2D0E94461040
:103B1000EFCF0E94040980916903C81640F00E940B
:103B20000A090E942B0964E0802F8F71EFCF81E09A
:103B30000E940210DDCFDD2059F0502F5F71B52EAD
:103B4000852F0E943B1063E08B2D0E9446103FCED4
:103B500081E00E94021081E08C1508F038CE82E0EE
:103B60000E94021034CEC110B3CE802F8F7162CF6D
:103B7000DD2019F0C11038CE3BCEC11035CE20E08B
:103B8000F701408151816281738184810E94720BAF
:103B900080916A0383FF28CE8091890190918A01E8
:103BA000029709F021CE812F0E9408141DCE00310A
:103BB000BFE51B0709F4C6C90131EFE51E0709F48B
:103BC000CBC9680127E5D21A882309F4C7C93FEF9A
:103BD000C316D10409F008F4F3C98091680380FF8B
:103BE00039C00E9473046C01D70112968C9188230E
:103BF00009F463CA80911A0182FF08C02BEF31E0FB
:103C000040E0B60190E080E00E9463150B31BCE516
:103C10001B0709F444CA0C31ECE51E0709F445CA38
:103C200090911A01892F8E7F90FF81600A31FCE507
:103C30001F0709F43DCAC8019056811520E292077A
:103C400028F0905E8115904108F045CA1092A402B8
:103C50001092A302033FBCE51B0709F48ECB08F0CA
:103C60002ACB083DFCE51F0709F481CB093D2CE573
:103C7000120709F49ACB073D3CE5130709F027CB5F
:103C800006E221EE41EE67ED7CE5C7010E942914B2
:103C9000C7C806311C4509F0ADCB80918002982F32
:103CA0009A7A2091670320FF04C0482F447409F0DA
:103CB00090E021FF04C0482F417109F090E022FFFD
:103CC00004C0482F487809F090E023FF03C08272B7
:103CD00009F090E0332309F4B2CC81E0911101C0E6
:103CE00080E08093880169E2911165E380E891E0CA
:103CF0000E947F040E94FC0E93C8CF92DF92EF9245
:103D0000FF920F931F93CF93DF9380919901807F50
:103D100031F480919601C091DD0181110BC0DF91DA
:103D2000CF911F910F91FF90EF90DF90CF9008956A
:103D30002196C77080919C018C1789F3F0909401B3
:103D4000E0909501C0909701D0909801A6016E2D4A
:103D50008F2D0E94D104D0E08111EACF8E0183E043
:103D6000000F111F8A95E1F7F801E356FE4F81819C
:103D70008E11DECF80818F11DBCF82818111D8CF70
:103D8000E380F480EC18FD0860E084E991E00E9493
:103D90009B0B8091650390916603E816F90640F647
:103DA000809199018F70806180939901F801EE559F
:103DB000FE4F80818F708061808384E991E00E9452
:103DC0008916DF91CF911F910F91FF90EF90DF90B7
:103DD000CF900C9451093F924F925F926F927F92D5
:103DE0008F929F92AF92BF92CF92DF92EF92FF920B
:103DF0000F931F93CF93DF93CDB7DEB765970FB6C1
:103E0000F894DEBF0FBECDBF8C0185E0F801DE0166
:103E1000519601900D928A95E1F7D8014C90119638
:103E20005C9011971296EC9012971396CD90DC90BF
:103E300060E084E991E00E949B0B84E9A82E81E078
:103E4000B82E8090970190909801A40160919501FF
:103E5000809194010E94D1048111CAC1F090960111
:103E6000F601E819F9094F0160E0FF2009F46DC17E
:103E7000C5010E949B0B60906503709066033090B3
:103E800099018614970408F013C14091970150914D
:103E90009801B0909401A0909501832D807F6A2DA8
:103EA00009F0ADC08B2D0E94D104FE2C81113BC0C6
:103EB000D80111968C9111978A1135C08C918B1174
:103EC00032C020919A0130919B0116968D919C9160
:103ED0002817390741F5E11026C0832D8F708061C6
:103EE0008093990184E991E00E948916809199015B
:103EF000F80185838F2D65960FB6F894DEBF0FBE4F
:103F0000CDBFDF91CF911F910F91FF90EF90DF9088
:103F1000CF90BF90AF909F908F907F906F905F9069
:103F20004F903F900895F4EF6F16F1E07F0620F474
:103F300080916A0380FF21C0A601652D842D0E9417
:103F4000D104811118C081E08E2580FF16C04E2D4E
:103F5000652D842D0E943109882379F084E991E050
:103F60000E94891688E0E4E9F1E0DF011D928A955C
:103F7000E9F7F12CBFCF80E0E8CFA601652D842DB5
:103F80000E94D104811124C081E08E25B82FB17028
:103F9000CB2E80FF2BC04E2D652D842D0E94310924
:103FA000D82E811123C0498A5A8A89899A890E9408
:103FB000580B292F22952F70223060F0243088F47E
:103FC0009F7061F0F8019581907F41F4FD2C92CFB4
:103FD00080E0DCCF9F7011F08823C1F3805E8830D1
:103FE000A8F3C8010E948916DC2CF0CFEE2009F45A
:103FF00081CF80919901816080939901BACF8B2DF7
:104000000E94D104811124C0D80111968C9111977E
:104010008A111EC08C918B111BC020919A01309186
:104020009B0116968D919C9117972817390781F45B
:10403000E1100EC015963C92C8010E94891688E0D6
:10404000F801A4E9B1E001900D928A95E1F752CF11
:10405000C8010E94640B882339F1EE2029F1809178
:1040600099018032A0F020919401309195013A8716
:1040700029871B86DD86CC868E8780919A01909158
:104080009B01988B8F87CE0109960E94891688E044
:10409000F801A4E9B1E001900D928A95E1F70E9440
:1040A0007D1EFF24F39426CFC8010E948916F9CF04
:1040B000832D807F09F452CF9090940180909501D8
:1040C0004091970150919801682D892D0E94D1044B
:1040D00081111CC0F8018181881118C0808189116B
:1040E00015C020919A0130919B01868197812817F4
:1040F000390761F4E1100AC03582C8010E948916AF
:1041000088E0D5011D928A95E9F7F4CEC8010E9496
:10411000640B882349F2EE2039F2809199018032B4
:1041200008F4B5CF20919401309195013A83298309
:104130001B82DD82CC828E8380919A0190919B01BB
:1041400098878F83CE010196A0CF84E991E00E94E9
:104150009B0B80916503909166038816990680F603
:10416000FE2CEE2009F4A0CFE0909401D0909501B0
:1041700040919701509198016D2D8E2D0E94D10490
:10418000811128C0F80181818D1124C080818E1198
:1041900021C020919A0130919B0186819781281737
:1041A0003907C1F480916A0382FD49CF909199014A
:1041B00090FD45CF907F09F442CF8091990185838E
:1041C000903F09F439CF982F907F905F8F70892BA3
:1041D000858332CFC8010E94640B811158CF809132
:1041E0009901816080939901C8010E94891682CE4D
:1041F000EE2009F459CFC8010E94640BF82E8823E1
:1042000009F452CF88E0F801A4E9B1E001900D92E1
:104210008A95E1F780919401909195010E94580B45
:104220000E947D1E67CECF93DF93CDB7DEB7609738
:104230000FB6F894DEBF0FBECDBF29873A874B87F4
:104240005C876D877E878F87988BCE0109960E9449
:10425000EB1E81112FC088E0FE013996DE01119618
:1042600001900D928A95E1F74C855D856A85898577
:104270000E94D10481111EC0A0919C01B0E0CD012B
:104280000196877099272091DD012817190609F1F9
:1042900093E0AA0FBB1F9A95E1F7A356BE4F98E093
:1042A000FE01319601900D929A95E1F780939C0161
:1042B0000E9451098091DD0190919C01891317C0E2
:1042C00060960FB6F894DEBF0FBECDBFDF91CF91E1
:1042D00008950E94601010929C011092DD0188E008
:1042E000E4E9F1E0DF011D928A95E9F7E3CFB8E058
:1042F0008B9FC001112483569E4F0E94EB1E882382
:10430000F9F28091DD0190E0019687709927809302
:10431000DD01D0CFEF92FF920F931F93CF93DF93E6
:104320008091A802882361F0C091A7028CE0F82E4A
:104330008091A802C81758F01092A8021092A70204
:10434000DF91CF911F910F91FF90EF900895EE2490
:10435000E394EC0EE092A7020C2F10E0CF9DE00159
:104360001124C755DD4F4B815C81698188810E9492
:10437000D10481111DC08E819F81892B21F48885F4
:104380009985019651F4288139814A815B816C813C
:104390007D818E819F810E941321F09EF001F19E0C
:1043A000F00D1124E755FD4F1482138210924B0437
:1043B000CE2DBECF10924C0310924B0310921B01D6
:1043C00080914A03809349030E940A050C948A2134
:1043D0003F924F925F926F927F928F929F92AF9295
:1043E000BF92CF92DF92EF92FF920F931F93CF93E2
:1043F000DF93C091490397E0892E01E010E02CE0A3
:10440000322E3EEF932E4424439480914A038C1322
:1044100015C00E948A21DF91CF911F910F91FF90CB
:10442000EF90DF90CF90BF90AF909F908F907F9054
:104430006F905F904F903F900C940A05D0E0FE0182
:10444000EE0FFF1FEF5BFC4F80819181889ED001B2
:10445000899EB00D1124A75FBC4F14962C91149720
:10446000211157C05090A802E9EAF2E030E020E0C4
:10447000712C5D01251508F04AC0E284F384D50152
:10448000CD90DC906FEF7FEF612C462D50E0DA018C
:10449000AA0FBB1FAC0DBD1D0D90BC91A02D109798
:1044A00031F0EA16FB0609F4BA016394EECF6F3FD0
:1044B0007607A1F1D80102C0AA0FBB1F6A95E2F7E7
:1044C0007A2AB80102C0660F771F6A94E2F7AB013F
:1044D0004150510974161506F9F4329EF001339ECD
:1044E000F00D1124E755FD4F889ED001899EB00D37
:1044F0001124A75FBC4F12962D913C9113973783DF
:104500002683908291829187808715964C920E9493
:10451000DC042196C37079CF148213822F5F3F4F42
:104520003C96A8CF2F923F924F925F926F927F92CC
:104530008F929F92AF92BF92CF92DF92EF92FF92B3
:104540000F931F93CF93DF93CDB7DEB769970FB665
:10455000F894DEBF0FBECDBF942F498B252F5A8B09
:104560006B8B7C8B8D8B4C895D89622F892F0E9490
:10457000D104811109C08091890190918A0101962D
:1045800090938A01809389018B89811110924B0449
:104590001D861E861F86188A85E0FE017196DE0143
:1045A000199601900D928A95E1F78091F50182FDAF
:1045B0001EC080914F0390915003892BC1F00E943F
:1045C00073042091DF013091E001821B930B209155
:1045D0004F03309150038217930720F08091E1013F
:1045E00082FFF5C10E94110981110E94D7084C85F4
:1045F0005D856A8589850E94D104811111C061E0C1
:10460000CE0109960E949B0B6C018B8527EFC21689
:104610002CE5D20681F4882321F181E080931B01EF
:1046200029853A854B855C856D857E858F85988942
:104630000E941321C5C038EFC3163CE5D30629F408
:10464000882379F00E94DA21EBCF49EFC4164CE5BC
:10465000D40639F4882329F080911B018111F2CF0F
:10466000DCCF09E013E0512CB12CA12C222423949F
:10467000312C2EEF422EF8014081518188248A94FA
:10468000982C20E0822F90E0FC01EE0FFF1FE40F3A
:10469000F51F608171816115710531F0C616D7066D
:1046A00009F44C012F5FEECFF12CFFEF8F169F0620
:1046B00009F448C0F8014481F0901B018F2D41118D
:1046C00080E0F82FF170FF2EF801E58086819B8550
:1046D000992309F40CC1FF2009F409C16090630318
:1046E00070906403E11012C0A10101C0440F8A94CC
:1046F000EAF7842B86838091A5029091A602861505
:10470000970520F47092A6026092A502C10102C032
:10471000880F991F2A95E2F70197F801268128173B
:10472000190681F480914B0390914C03009709F492
:1047300060C00E9464046816790608F05AC021E03F
:10474000F80124835F28FFEFAF1ABF0A095F1F4FEC
:1047500028E0A216B10409F08ECF8B85882309F4D6
:1047600021C1552009F41EC10E94730490934C038B
:1047700080934B038091A802883010F591E0980F48
:104780009093A80298E0FE013996DE0111960190FF
:104790000D929A95E1F73CE0839FC0011124875563
:1047A0009D4F28E0FE013196DC0101900D922A9583
:1047B000E1F72FEF3FEFFC0131872087D386C286D8
:1047C00069960FB6F894DEBF0FBECDBFDF91CF91D3
:1047D0001F910F91FF90EF90DF90CF90BF90AF901F
:1047E0009F908F907F906F905F904F903F902F9011
:1047F00008958091490350914A03982FF0E0E0E03A
:10480000851314C090934903E017F10709F49ACF78
:1048100090E0FC01EE0FFF1FEF5BFC4FB182A08226
:1048200001968370992780934A038CCF682E712C50
:10483000F301EE0FFF1FEF5BFC4F2081318147E05A
:10484000429FD001439FB00D1124A75FBC4F6D91D3
:104850007C911197798F688F40E020E030E0E32F62
:10486000F0E0EE0FFF1F688D798DE60FF71F808057
:10487000918081149104E1F0F8010190F081E02D24
:10488000FF8BEE8B20E005C08616970609F44F2DAE
:104890002F5FE22FF0E0EE0FFF1F6E897F89E60F9A
:1048A000F71F608171816115710571F73F5FD7CF87
:1048B0004423D1F0F801231708F0FD0121E02483FF
:1048C0000E171F0721F490934903F42E3BCF981342
:1048D00005C0AE17BF0711F49F5F937093012F5F60
:1048E0003F4F822F83708CCFF0E0E0E0F7CF90E075
:1048F000E1101FC0B10102C0660F771F2A95E2F7D1
:104900009B01215031098217930731F4442309F4A4
:1049100047C0C5010E94DC04C10101C0880F8A9410
:10492000EAF7982F9095F801868189238683FE2CDB
:1049300009CF9C01082C02C0359527950A94E2F70F
:10494000A90141705527BC01615071098623972345
:10495000892B11F5452B01F1F80182819381892B77
:10496000C1F01B821C821D821E8249824A820E94E3
:1049700073048160582F9D838C83F8018281938119
:104980008F83988729813A814B816D817E810E9436
:104990001321F8011582C0CFF22FF170EF2EBCCF9A
:1049A000EF2CBACF9091490380914A03981731F0C8
:1049B0000E94E821552009F433CE02CF0E948A21BB
:1049C00010924C0310924B030E940A05F3CF82E031
:1049D0000E94021007CECF93DF9300D000D00F9239
:1049E000CDB7DEB790937D0280937C02811520E2E3
:1049F000920748F40F900F900F900F900F90DF9157
:104A0000CF910C9497138EEF89838A831B820E9427
:104A100073048160782F9D838C8349815A816B81D7
:104A20008D810F900F900F900F900F90DF91CF918D
:104A30000C9492220F931F93CF93DF938C01EB0181
:104A400062E272E08C2F0E94720D892BA1F480919A
:104A50006B0390916C030E94860ADD27C65EDD4FD2
:104A60008881F80110821882833009F148F481307E
:104A700059F0823081F0DF91CF911F910F9108950D
:104A80008430D1F08530B9F78091220290912302D1
:104A9000009789F306C08091240290912502009727
:104AA00099F3DF91CF911F910F910C94EB2480919A
:104AB000260290912702F3CF80912802909129023B
:104AC000009779F7209122023091230280912402ED
:104AD0009091250221153105D9F2009711F7C901EE
:104AE000E0CFCF93DF9300D000D00F92CDB7DEB7E9
:104AF00090937D0280937C02811520E2920748F416
:104B00000F900F900F900F900F90DF91CF910C941A
:104B100038158EEF89838A8381E08B830E9473042A
:104B20008160782F9D838C8349815A816B818D812F
:104B30000F900F900F900F900F90DF91CF910C94EA
:104B40009222BF92CF92DF92EF92FF920F931F9328
:104B5000CF93DF93B82EC0904A0480914904C82AAD
:104B6000C7E0D0E0D12CF12CE12CD701C6010C2EEE
:104B700004C0B695A795979587950A94D2F780FFBC
:104B80001FC04B2D60E08C2F0E94B50A8C01813034
:104B90009105B1F00E9471258FE39CE90197F1F72F
:104BA00000C00000C8010E94EB2481E0DF91CF919A
:104BB0001F910F91FF90EF90DF90CF90BF900895DD
:104BC000219798F64B2D60E080E00E94B50AEC0139
:104BD0000E9471258FE39CE90197F1F700C0000066
:104BE000CE01E1CFCF93DF93EC010E94712580913C
:104BF0006B0390916C030E94860ACE01DF91CF91E6
:104C00000C94EB240F931F93CF93DF938C01862F8B
:104C100062E272E00E94720D892BC9F4C0912202F7
:104C2000D0912302209799F0F8018081833069F4B4
:104C3000CE010E94F225CE010E94F225CE01DF9125
:104C4000CF911F910F910C94F2258430B8F7DF912A
:104C5000CF911F910F9108950F931F93CF93DF93DF
:104C60008C01EB0162E272E08C2F0E94720D892BA5
:104C700009F064C0FE01FF27D8018C91E65EFD4F6C
:104C80008130D9F419969C911997992311F080835A
:104C90000CC01A969C919923D1F382E08083809175
:104CA0002402909125020097D9F4809122029091DC
:104CB0002302009709F442C013C08230E9F5199627
:104CC0008C91199781112DC01A968C9181110EC06B
:104CD00083E080838091260290912702009719F14A
:104CE000DF91CF911F910F910C94712584E0808307
:104CF0008091280290912902009791F780912202D9
:104D0000909123020097F9F00E94F22580912402ED
:104D100090912502009721F7809122029091230221
:104D2000DFCF85E08083809122029091230200975B
:104D300029F00E94F225F0CF86E08083DF91CF91A9
:104D40001F910F9108958091240290912502B1CF77
:104D50001F920F920FB60F9211242F933F934F93F0
:104D60005F936F937F938F939F93AF93BF93CF93F3
:104D7000DF93EF93FF93D091E900DF708091EC0017
:104D8000C82FC17080FDC0E81092E9008091F0004A
:104D9000877F8093F00078940E946B101092E90056
:104DA0008091F00088608093F000CD2BCF70C0938D
:104DB000E900FF91EF91DF91CF91BF91AF919F916A
:104DC0008F917F916F915F914F913F912F910F90B4
:104DD0000FBE0F901F9018951F920F920FB60F9253
:104DE00011242F933F934F935F936F937F938F93F0
:104DF0009F93AF93BF93EF93FF938091E10082FF66
:104E000009C08091E20082FF05C08091E1008B7FA4
:104E10008093E1008091DA0080FF24C08091D80067
:104E200080FF20C08091DA008E7F8093DA0080912D
:104E3000D90080FF9DC080E189BD82E189BD09B4B0
:104E400000FEFDCF81E080933F0480913204811108
:104E500009C00E94C5020E9490038091E200846014
:104E60008093E2008091E10080FF17C08091E20012
:104E700080FF13C08091E2008E7F8093E2008091DA
:104E8000E20080618093E2008091D800806280938C
:104E9000D80019BC85E080933F048091E10084FF35
:104EA0002BC08091E20084FF27C080E189BD82E1B0
:104EB00089BD89B5982F917080FFFBCF8091D80074
:104EC0008F7D8093D8008091E1008F7E8093E100F8
:104ED0008091E2008F7E8093E2008091E200816009
:104EE0008093E20080914004882309F447C084E065
:104EF00080933F0480913F048091E10083FF27C0AD
:104F00008091E20083FF23C08091E100877F80933E
:104F1000E10082E080933F04109240048091E10020
:104F20008E7F8093E1008091E2008E7F8093E2008B
:104F30008091E20080618093E20042E060E080E0E6
:104F40000E945E038091F00088608093F000FF91E2
:104F5000EF91BF91AF919F918F917F916F915F91F1
:104F60004F913F912F910F900FBE0F901F9018956A
:104F700019BC10923F041092320474CF8091E30068
:104F800087FD93E090933F04B5CF78941F921FB6AE
:104F90001F9211248F939F93AF93BF9380912B0403
:104FA00090912C04A0912D04B0912E040196A11D86
:104FB000B11D80932B0490932C04A0932D04B093E7
:104FC0002E04BF91AF919F918F911F901FBE1F9094
:104FD00018951F921FB61F9211248F939F93AF9322
:104FE000BF9380912A04811113C080912B0490916A
:104FF0002C04A0912D04B0912E044196A11DB11D49
:1050000080932B0490932C04A0932D04B0932E0432
:10501000BF91AF919F918F911F901FBE1F901895C8
:10502000CDB7DEB7E4970FB6F894DEBF0FBECDBFA5
:1050300084B7877F84BF0FB6F894A89580916000ED
:10504000886180936000109260000FBE80E890E05D
:105050000FB6F89480936100909361000FBE85B7FE
:10506000806885BF85B7806885BF83EF96E09093A1
:105070007F0180937E010E94860D0E94DC0D0E94BC
:10508000900A0E94C5020E9490038091E200846011
:105090008093E200789480913F048823A1F01091DE
:1050A000E9001F709091EC00892F817090FD80E8DD
:1050B000182B1092E9008091E80083FD0E946B108C
:1050C0001F701093E90082E084BD93E095BD9AEFD4
:1050D00097BD80936E000E94A90B811102C00E94AF
:1050E000630D86E60E94F50687E90E94F50686ECC8
:1050F0000E94F50684E30E94F5060AE511E08FE5BB
:10510000E82E81E0F82ED8018D918D018F3F11F0AE
:105110000E94F506E016F106B1F784E0E9E0F2E05E
:10512000DF01282F1D922A95E9F7E0EFF1E0DF017A
:105130001D928A95E9F790E080E00E94752F893EE4
:105140009E4F21F40E94A90B811102C00E941F16DC
:1051500082E090E00E946D2F8093F6010E94C20BC6
:105160009093F5018093F4010E94350EEFE3FCE982
:105170003197F1F700C000000E94350E80910902BE
:1051800080FF08C06FEF7FEF90E080E00E94992FD2
:105190000E94530483E090E00E946D2F0E945C10F7
:1051A0005198599A5098589A8FE891E00197F1F7E1
:1051B00000C0000089B186958170489977C190E060
:1051C000892B8093050280E091E0909327048093DF
:1051D0002604A8E1AA2EB12C89E092E0B4E05B2E6F
:1051E000580E8E010F5F1F4F80913F0470E4D72E41
:1051F000E0E1EE2EF2E1FF2E853009F48BC10E9432
:10520000350E882359F08FB7F89440912B045091B4
:105210002C0460912D0470912E048FBFA9E0B2E0A0
:10522000E7EFF1E0F12CE12C3E2D8D919191981753
:1052300009F47FC1292F282790E0DD24D3944D2D38
:10524000422309F471C19BA73CA78D2191E009F489
:1052500090E09DA70E9473048160782F9FA78EA77E
:105260004BA55CA56DA58FA50E949222F701E95080
:10527000FE4F8081D826D08280910C0190910D0143
:10528000F12C66E1E62E019609F09BC180911B018D
:105290008111A1C18091680380FF1EC080911A0115
:1052A00082FF1AC00E9473042091A1023091A202D1
:1052B000AC01421B530B2091180130911901421788
:1052C000530750F02BEF31E041E0BC018091A30285
:1052D0009091A4020E946315E0910502EE0FEE0F7B
:1052E000E093050289B181FB662460F848999EC16C
:1052F00080E08629E82BE0930502EF70F0E0E15AA8
:10530000FE4F808190910402890F8093040220E077
:1053100084304CF0809103028F5F8093030280E021
:105320000E94A12521E0809104028D3F4CF48091E0
:10533000030281508093030281E00E94A12521E0B5
:1053400080910402082E000C990B64E070E00E942A
:10535000162F80930402222359F08FB7F8944091BE
:105360002B0450912C0460912D0470912E048FBF5A
:1053700086E0E4E1F2E0D80101900D928A95E1F730
:10538000C0901602D0901702E0901802F090190217
:10539000109216021092170210921802109219021F
:1053A0008C2D8D2991F080911202909113020E9410
:1053B0006404AC0190910E02992309F43AC18091E2
:1053C00016018417150608F442C18E2D8F2991F01D
:1053D00080911002909111020E946404AC0190919E
:1053E0000D02992309F472C18091120184171506E8
:1053F00008F47AC18091160290911702892B90913E
:105400001802892B90911902892B11F00E944905ED
:1054100086E0F801A4E1B2E001900D928A95E1F7EF
:105420000E94C50490910602891380930602809120
:105430003F04843009F0D8CE83E08093E900809166
:10544000E80082FFD1CE8091E80090E085FF0AC09D
:105450000E94E40250E2C52ED12C7801882309F481
:105460008CC191E08091E8008B778093E8009923CC
:1054700009F4BACEE0907E02F0907F028981E114B7
:10548000F10409F488C18E3F09F0D0C18A818330CC
:1054900020F08550833008F0C9C1EA81EE3008F071
:1054A000C5C1F0E0E153F04D0C942A2F92E088CE74
:1054B00080913F04843009F110922A040FB6F894C9
:1054C000A895A09260000FBED092600083B7817F44
:1054D000846083BF83B7816083BF7894889583B7E6
:1054E0008E7F83BF0FB6F894A89580916000886185
:1054F00080936000109260000FBE80913E0488236C
:1055000049F00E94350EE9E0F2E08191811124C456
:105510005E12FBCF80913F04853009F4C9CF0E9411
:1055200060100E94C5046BCE9F5FDD0C953009F0C2
:1055300086CE9FEFE91AF90A24E0E216F10409F099
:1055400073CE8FEF88AB89AB1AAA0E947304816077
:10555000782F9CAB8BAB48A959A96AA98CA90E944A
:1055600092228ACEE89EF001E99EF00D1124EC58BB
:10557000FC4FC288D388C114D10421F4C0906503C4
:10558000D0906603E89EF001E99EF00D1124EC58DE
:10559000FC4F86818823A1F0858596850E9464044E
:1055A000C816D90668F4FE9C60011124C6018C5807
:1055B0009C4F0E948D0FC60186589C4F0E94480F39
:1055C000F3948F2D90E020910C0130910D0128175C
:1055D000390744F65BCE80914B0390914C030097C2
:1055E00009F458CE0E9464042091A5023091A602CD
:1055F0002817390708F04ECE9091490380914A034D
:10560000981759F00E94E8211092A6021092A50264
:1056100010924C0310924B033DCE0E948A211092AF
:105620004C0310924B030E940A0534CE82E090E0B6
:1056300060CE209117018AE0289F90011124241741
:10564000350708F0C2CE9F5F90930E0202C09F3FC5
:10565000D1F7CC2059F00E942C069FEF1C140CF4BB
:1056600091E0899F802D112480931602DD2059F04E
:105670000E942C069FEF1D140CF491E0899F802D51
:1056800011248093170230911602332309F49DCE22
:1056900020911702222309F498CE45EB3403C00170
:1056A0001124992359F09093160245EB240390019D
:1056B0001124332339F03093170287CE81E0809391
:1056C0001602F3CF81E0809317027FCE2091130161
:1056D0008AE0289F900111242417350708F08ACE0C
:1056E0009F5F90930D0202C09F3FD1F7EE2059F0CB
:1056F0000E94F3059FEF1E140CF491E0899F802D0A
:10570000112480931802FF2059F00E94F3059FEFA7
:105710001F140CF491E0899F802D112480931902AD
:1057200030911802332309F465CE20911902222307
:1057300009F460CE45EB3403C0011124992359F0DC
:105740009093180245EB240390011124332339F080
:10575000309319024FCE81E080931802F3CF81E09D
:105760008093190247CE8091F100D7018D937D017E
:10577000B1E0CB1AD10809F474CE8091E80085FD20
:10578000F2CF8091E8008B778093E8000E94E402DA
:10579000882399F366CE8D3009F4ACC0B0F4843020
:1057A00009F48FC040F4823041F108F07BC08130B1
:1057B00001F18FEFFDC2863009F499C008F48CC066
:1057C0008C30B9F780E18A8331C0813109F4EEC0B1
:1057D00040F48F3009F4BCC008F490C00E94290C3A
:1057E00025C0833109F40CC108F4E2C08E3F09F7EB
:1057F00054CE1A8289E08B8319C08A81823009F4E1
:10580000F9C28330E1F18130A1F62FB7F8946091AD
:105810002B0470912C0480912D0490912E042FBFA5
:105820000E94302F6B837C838D839E8380913F0405
:10583000843009F0D9CCF090E9002F2D2F70F22E92
:105840009091EC00892F817090FD80E8F82A82E029
:105850008093E9008091E80080FF0CC050E040E0B8
:1058600060E270E0C8010E9415038091E8008E7725
:105870008093E8008F2D8F708093E900B5CC8091E4
:105880000E0190910F01892B89F2809109028B837F
:1058900080910A028C8380910B028D8380910C028F
:1058A0008E83C4CF8A81823009F083CF6B817C8163
:1058B0008D819E810E94302F86E290E00E947B2F96
:1058C000B5CF4C816B818A810E94DE0A9827892797
:1058D00098279E838D83AACF2D813E81322723274F
:1058E00032274C816B818A810E946A0C9FCF0E9473
:1058F000B70C9CCF82E08A8387E67DCFEC80F12CC9
:10590000EDE1EE16F10408F091CFCA80DB80DC24D3
:10591000CD24DC244801E00EF11EC60187569E4FBF
:10592000E814F90409F482CFF7E6CF16F2E0DF06B7
:1059300060F40E946D2FD40114968C93FFEFCF1A60
:10594000DF0A2FEF821A920AE8CFF4011482F6CF11
:1059500080910E0190910F01892B09F467CFCC80C3
:10596000D12C3DE1C316D10408F060CFEA80FB8062
:10597000FE24EF24FE244801CE0CDF1CC70187560D
:105980009E4FCE14DF0409F451CF47E6E41642E0FF
:10599000F40628F4D40114966C910E947B2FBFEF7B
:1059A0008B1A9B0AEFEFEE1AFE0AE8CF84E00BCFCA
:1059B000EC80F12CFDE1EF16F10408F037CFCA803E
:1059C000DB80DC24CD24DC244801E00EF11EC6017E
:1059D0008796E814F90409F429CF20EAC216D10405
:1059E00060F40E946D2FD40114968C93FFEFCF1AB0
:1059F000DF0A2FEF821A920AEACFF4011482F6CF5F
:105A0000CC80D12C3DE1C316D10408F00FCFEA8041
:105A1000FB80FE24EF24FE2440EAE416F10408F0A3
:105A200005CF80EA90E08E199F098C159D0508F43A
:105A3000FDCE4801CE0CDF1CC7018796EC14FD0497
:105A400009F4F4CEA0EAEA16F10420F4F40164812A
:105A50000E947B2FFFEF8F1A9F0A2FEFE21AF20AA4
:105A6000EBCF88E0EDE1F1E0DE01919601900D923F
:105A70008A95E1F780E2D8011D928A95E9F784E0E2
:105A8000898388E0FE01B196DE01159601900D92A2
:105A90008A95E1F7CBCE88EE89831A821B821C821D
:105AA000C5CE8C81682F70E0762F66278B81860F9C
:105AB000972F911D092E000CAA0BBB0B45E0880FF8
:105AC000991FAA1FBB1F4A95D1F7AC01BD01405ECB
:105AD0005F4F6F4F7F4F481759076A077B0708F4DE
